{
  "_format": "hh-sol-artifact-1",
  "contractName": "HecoPool",
  "sourceName": "contracts/heco/HecoPool.sol",
  "abi": [
    {
      "inputs": [
        {
          "internalType": "contract IMdx",
          "name": "_mdx",
          "type": "address"
        },
        {
          "internalType": "uint256",
          "name": "_mdxPerBlock",
          "type": "uint256"
        },
        {
          "internalType": "uint256",
          "name": "_startBlock",
          "type": "uint256"
        }
      ],
      "stateMutability": "nonpayable",
      "type": "constructor"
    },
    {
      "anonymous": false,
      "inputs": [
        {
          "indexed": true,
          "internalType": "address",
          "name": "user",
          "type": "address"
        },
        {
          "indexed": true,
          "internalType": "uint256",
          "name": "pid",
          "type": "uint256"
        },
        {
          "indexed": false,
          "internalType": "uint256",
          "name": "amount",
          "type": "uint256"
        }
      ],
      "name": "Deposit",
      "type": "event"
    },
    {
      "anonymous": false,
      "inputs": [
        {
          "indexed": true,
          "internalType": "address",
          "name": "user",
          "type": "address"
        },
        {
          "indexed": true,
          "internalType": "uint256",
          "name": "pid",
          "type": "uint256"
        },
        {
          "indexed": false,
          "internalType": "uint256",
          "name": "amount",
          "type": "uint256"
        }
      ],
      "name": "EmergencyWithdraw",
      "type": "event"
    },
    {
      "anonymous": false,
      "inputs": [
        {
          "indexed": true,
          "internalType": "address",
          "name": "previousOwner",
          "type": "address"
        },
        {
          "indexed": true,
          "internalType": "address",
          "name": "newOwner",
          "type": "address"
        }
      ],
      "name": "OwnershipTransferred",
      "type": "event"
    },
    {
      "anonymous": false,
      "inputs": [
        {
          "indexed": true,
          "internalType": "address",
          "name": "user",
          "type": "address"
        },
        {
          "indexed": true,
          "internalType": "uint256",
          "name": "pid",
          "type": "uint256"
        },
        {
          "indexed": false,
          "internalType": "uint256",
          "name": "amount",
          "type": "uint256"
        }
      ],
      "name": "Withdraw",
      "type": "event"
    },
    {
      "inputs": [
        {
          "internalType": "address",
          "name": "",
          "type": "address"
        }
      ],
      "name": "LpOfPid",
      "outputs": [
        {
          "internalType": "uint256",
          "name": "",
          "type": "uint256"
        }
      ],
      "stateMutability": "view",
      "type": "function"
    },
    {
      "inputs": [
        {
          "internalType": "uint256",
          "name": "_allocPoint",
          "type": "uint256"
        },
        {
          "internalType": "contract IERC20",
          "name": "_lpToken",
          "type": "address"
        },
        {
          "internalType": "bool",
          "name": "_withUpdate",
          "type": "bool"
        }
      ],
      "name": "add",
      "outputs": [],
      "stateMutability": "nonpayable",
      "type": "function"
    },
    {
      "inputs": [
        {
          "internalType": "address",
          "name": "_addLP",
          "type": "address"
        }
      ],
      "name": "addMultLP",
      "outputs": [
        {
          "internalType": "bool",
          "name": "",
          "type": "bool"
        }
      ],
      "stateMutability": "nonpayable",
      "type": "function"
    },
    {
      "inputs": [
        {
          "internalType": "uint256",
          "name": "_pid",
          "type": "uint256"
        },
        {
          "internalType": "uint256",
          "name": "_amount",
          "type": "uint256"
        }
      ],
      "name": "deposit",
      "outputs": [],
      "stateMutability": "nonpayable",
      "type": "function"
    },
    {
      "inputs": [
        {
          "internalType": "uint256",
          "name": "_pid",
          "type": "uint256"
        }
      ],
      "name": "emergencyWithdraw",
      "outputs": [],
      "stateMutability": "nonpayable",
      "type": "function"
    },
    {
      "inputs": [
        {
          "internalType": "uint256",
          "name": "_lastRewardBlock",
          "type": "uint256"
        }
      ],
      "name": "getMdxBlockReward",
      "outputs": [
        {
          "internalType": "uint256",
          "name": "",
          "type": "uint256"
        }
      ],
      "stateMutability": "view",
      "type": "function"
    },
    {
      "inputs": [
        {
          "internalType": "uint256",
          "name": "_pid",
          "type": "uint256"
        }
      ],
      "name": "getMultLPAddress",
      "outputs": [
        {
          "internalType": "address",
          "name": "",
          "type": "address"
        }
      ],
      "stateMutability": "view",
      "type": "function"
    },
    {
      "inputs": [],
      "name": "getMultLPLength",
      "outputs": [
        {
          "internalType": "uint256",
          "name": "",
          "type": "uint256"
        }
      ],
      "stateMutability": "view",
      "type": "function"
    },
    {
      "inputs": [],
      "name": "halvingPeriod",
      "outputs": [
        {
          "internalType": "uint256",
          "name": "",
          "type": "uint256"
        }
      ],
      "stateMutability": "view",
      "type": "function"
    },
    {
      "inputs": [
        {
          "internalType": "address",
          "name": "_LP",
          "type": "address"
        }
      ],
      "name": "isMultLP",
      "outputs": [
        {
          "internalType": "bool",
          "name": "",
          "type": "bool"
        }
      ],
      "stateMutability": "view",
      "type": "function"
    },
    {
      "inputs": [],
      "name": "massUpdatePools",
      "outputs": [],
      "stateMutability": "nonpayable",
      "type": "function"
    },
    {
      "inputs": [],
      "name": "mdx",
      "outputs": [
        {
          "internalType": "contract IMdx",
          "name": "",
          "type": "address"
        }
      ],
      "stateMutability": "view",
      "type": "function"
    },
    {
      "inputs": [],
      "name": "mdxPerBlock",
      "outputs": [
        {
          "internalType": "uint256",
          "name": "",
          "type": "uint256"
        }
      ],
      "stateMutability": "view",
      "type": "function"
    },
    {
      "inputs": [],
      "name": "multLpChef",
      "outputs": [
        {
          "internalType": "address",
          "name": "",
          "type": "address"
        }
      ],
      "stateMutability": "view",
      "type": "function"
    },
    {
      "inputs": [],
      "name": "multLpToken",
      "outputs": [
        {
          "internalType": "address",
          "name": "",
          "type": "address"
        }
      ],
      "stateMutability": "view",
      "type": "function"
    },
    {
      "inputs": [],
      "name": "owner",
      "outputs": [
        {
          "internalType": "address",
          "name": "",
          "type": "address"
        }
      ],
      "stateMutability": "view",
      "type": "function"
    },
    {
      "inputs": [],
      "name": "paused",
      "outputs": [
        {
          "internalType": "bool",
          "name": "",
          "type": "bool"
        }
      ],
      "stateMutability": "view",
      "type": "function"
    },
    {
      "inputs": [
        {
          "internalType": "uint256",
          "name": "_pid",
          "type": "uint256"
        },
        {
          "internalType": "address",
          "name": "_user",
          "type": "address"
        }
      ],
      "name": "pending",
      "outputs": [
        {
          "internalType": "uint256",
          "name": "",
          "type": "uint256"
        },
        {
          "internalType": "uint256",
          "name": "",
          "type": "uint256"
        }
      ],
      "stateMutability": "view",
      "type": "function"
    },
    {
      "inputs": [
        {
          "internalType": "uint256",
          "name": "blockNumber",
          "type": "uint256"
        }
      ],
      "name": "phase",
      "outputs": [
        {
          "internalType": "uint256",
          "name": "",
          "type": "uint256"
        }
      ],
      "stateMutability": "view",
      "type": "function"
    },
    {
      "inputs": [
        {
          "internalType": "uint256",
          "name": "",
          "type": "uint256"
        }
      ],
      "name": "poolCorrespond",
      "outputs": [
        {
          "internalType": "uint256",
          "name": "",
          "type": "uint256"
        }
      ],
      "stateMutability": "view",
      "type": "function"
    },
    {
      "inputs": [
        {
          "internalType": "uint256",
          "name": "",
          "type": "uint256"
        }
      ],
      "name": "poolInfo",
      "outputs": [
        {
          "internalType": "contract IERC20",
          "name": "lpToken",
          "type": "address"
        },
        {
          "internalType": "uint256",
          "name": "allocPoint",
          "type": "uint256"
        },
        {
          "internalType": "uint256",
          "name": "lastRewardBlock",
          "type": "uint256"
        },
        {
          "internalType": "uint256",
          "name": "accMdxPerShare",
          "type": "uint256"
        },
        {
          "internalType": "uint256",
          "name": "accMultLpPerShare",
          "type": "uint256"
        },
        {
          "internalType": "uint256",
          "name": "totalAmount",
          "type": "uint256"
        }
      ],
      "stateMutability": "view",
      "type": "function"
    },
    {
      "inputs": [],
      "name": "poolLength",
      "outputs": [
        {
          "internalType": "uint256",
          "name": "",
          "type": "uint256"
        }
      ],
      "stateMutability": "view",
      "type": "function"
    },
    {
      "inputs": [],
      "name": "renounceOwnership",
      "outputs": [],
      "stateMutability": "nonpayable",
      "type": "function"
    },
    {
      "inputs": [
        {
          "internalType": "address",
          "name": "_multLpToken",
          "type": "address"
        },
        {
          "internalType": "address",
          "name": "_multLpChef",
          "type": "address"
        }
      ],
      "name": "replaceMultLP",
      "outputs": [],
      "stateMutability": "nonpayable",
      "type": "function"
    },
    {
      "inputs": [
        {
          "internalType": "uint256",
          "name": "blockNumber",
          "type": "uint256"
        }
      ],
      "name": "reward",
      "outputs": [
        {
          "internalType": "uint256",
          "name": "",
          "type": "uint256"
        }
      ],
      "stateMutability": "view",
      "type": "function"
    },
    {
      "inputs": [
        {
          "internalType": "uint256",
          "name": "_pid",
          "type": "uint256"
        },
        {
          "internalType": "uint256",
          "name": "_allocPoint",
          "type": "uint256"
        },
        {
          "internalType": "bool",
          "name": "_withUpdate",
          "type": "bool"
        }
      ],
      "name": "set",
      "outputs": [],
      "stateMutability": "nonpayable",
      "type": "function"
    },
    {
      "inputs": [
        {
          "internalType": "uint256",
          "name": "_block",
          "type": "uint256"
        }
      ],
      "name": "setHalvingPeriod",
      "outputs": [],
      "stateMutability": "nonpayable",
      "type": "function"
    },
    {
      "inputs": [
        {
          "internalType": "uint256",
          "name": "_newPerBlock",
          "type": "uint256"
        }
      ],
      "name": "setMdxPerBlock",
      "outputs": [],
      "stateMutability": "nonpayable",
      "type": "function"
    },
    {
      "inputs": [
        {
          "internalType": "address",
          "name": "_multLpToken",
          "type": "address"
        },
        {
          "internalType": "address",
          "name": "_multLpChef",
          "type": "address"
        }
      ],
      "name": "setMultLP",
      "outputs": [],
      "stateMutability": "nonpayable",
      "type": "function"
    },
    {
      "inputs": [],
      "name": "setPause",
      "outputs": [],
      "stateMutability": "nonpayable",
      "type": "function"
    },
    {
      "inputs": [
        {
          "internalType": "uint256",
          "name": "_pid",
          "type": "uint256"
        },
        {
          "internalType": "uint256",
          "name": "_sid",
          "type": "uint256"
        }
      ],
      "name": "setPoolCorr",
      "outputs": [],
      "stateMutability": "nonpayable",
      "type": "function"
    },
    {
      "inputs": [],
      "name": "startBlock",
      "outputs": [
        {
          "internalType": "uint256",
          "name": "",
          "type": "uint256"
        }
      ],
      "stateMutability": "view",
      "type": "function"
    },
    {
      "inputs": [],
      "name": "totalAllocPoint",
      "outputs": [
        {
          "internalType": "uint256",
          "name": "",
          "type": "uint256"
        }
      ],
      "stateMutability": "view",
      "type": "function"
    },
    {
      "inputs": [
        {
          "internalType": "address",
          "name": "newOwner",
          "type": "address"
        }
      ],
      "name": "transferOwnership",
      "outputs": [],
      "stateMutability": "nonpayable",
      "type": "function"
    },
    {
      "inputs": [
        {
          "internalType": "uint256",
          "name": "_pid",
          "type": "uint256"
        }
      ],
      "name": "updatePool",
      "outputs": [],
      "stateMutability": "nonpayable",
      "type": "function"
    },
    {
      "inputs": [
        {
          "internalType": "uint256",
          "name": "",
          "type": "uint256"
        },
        {
          "internalType": "address",
          "name": "",
          "type": "address"
        }
      ],
      "name": "userInfo",
      "outputs": [
        {
          "internalType": "uint256",
          "name": "amount",
          "type": "uint256"
        },
        {
          "internalType": "uint256",
          "name": "rewardDebt",
          "type": "uint256"
        },
        {
          "internalType": "uint256",
          "name": "multLpRewardDebt",
          "type": "uint256"
        }
      ],
      "stateMutability": "view",
      "type": "function"
    },
    {
      "inputs": [
        {
          "internalType": "uint256",
          "name": "_pid",
          "type": "uint256"
        },
        {
          "internalType": "uint256",
          "name": "_amount",
          "type": "uint256"
        }
      ],
      "name": "withdraw",
      "outputs": [],
      "stateMutability": "nonpayable",
      "type": "function"
    }
  ],
  "bytecode": "0x60806040526009805460ff191690556000600a5562503340600e553480156200002757600080fd5b506040516200362138038062003621833981810160405260608110156200004d57600080fd5b508051602082015160409092015190919060006200006a620000e1565b600080546001600160a01b0319166001600160a01b0383169081178255604051929350917f8be0079c531659141344cd1fd0a4f28419497f9722a3daafe3b4186f6b6457e0908290a350600380546001600160a01b0319166001600160a01b039490941693909317909255600455600b55620000e5565b3390565b61352c80620000f56000396000f3fe608060405234801561001057600080fd5b50600436106102275760003560e01c8063715018a611610130578063b337d32c116100b8578063e2bbb1581161007c578063e2bbb158146105c6578063e4c75c27146105e9578063e6ab8d481461062e578063e715e23414610636578063f2fde38b1461066457610227565b8063b337d32c14610559578063b5ec5c991461057c578063cb4502c414610599578063d431b1ac146105b6578063dfc7b95b146105be57610227565b80638fa39a88116100ff5780638fa39a881461049657806393f1a40b1461049e578063a9fb763c146104e8578063aaae43cc14610505578063b0c7044b1461053357610227565b8063715018a614610443578063791ba3741461044b5780637fe6f5ac146104685780638da5cb5b1461048e57610227565b806351eb05a6116101b35780635a3e251f116101825780635a3e251f146103f85780635c975abb14610400578063630b5ba11461040857806364482f7914610410578063705bbc011461043b57610227565b806351eb05a61461037c5780635312ea8e146103995780635672ab55146103b657806356c5867d146103be57610227565b80631b15b579116101fa5780631b15b579146102c55780631eaaa045146102e25780634315490714610318578063441a3e701461035157806348cd4cb11461037457610227565b8063081e3eda1461022c578063135f8aa7146102465780631526fe271461026357806317caf6f1146102bd575b600080fd5b61023461068a565b60408051918252519081900360200190f35b6102346004803603602081101561025c57600080fd5b5035610690565b6102806004803603602081101561027957600080fd5b50356106eb565b604080516001600160a01b0390971687526020870195909552858501939093526060850191909152608084015260a0830152519081900360c00190f35b610234610738565b610234600480360360208110156102db57600080fd5b503561073e565b610316600480360360608110156102f857600080fd5b508035906001600160a01b03602082013516906040013515156107e2565b005b6103356004803603602081101561032e57600080fd5b5035610a40565b604080516001600160a01b039092168252519081900360200190f35b6103166004803603604081101561036757600080fd5b5080359060200135610aa9565b610234610b58565b6103166004803603602081101561039257600080fd5b5035610b5e565b610316600480360360208110156103af57600080fd5b5035610d5b565b610335610e07565b6103e4600480360360208110156103d457600080fd5b50356001600160a01b0316610e16565b604080519115158252519081900360200190f35b610234610f53565b6103e4610f59565b610316610f62565b6103166004803603606081101561042657600080fd5b50803590602081013590604001351515610f81565b61033561104c565b61031661105b565b6103166004803603602081101561046157600080fd5b50356110fd565b6103e46004803603602081101561047e57600080fd5b50356001600160a01b0316611162565b61033561116f565b61023461117e565b6104ca600480360360408110156104b457600080fd5b50803590602001356001600160a01b0316611184565b60408051938452602084019290925282820152519081900360600190f35b610234600480360360208110156104fe57600080fd5b50356111b0565b6103166004803603604081101561051b57600080fd5b506001600160a01b03813581169160200135166111dd565b6102346004803603602081101561054957600080fd5b50356001600160a01b03166113dd565b6103166004803603604081101561056f57600080fd5b50803590602001356113ef565b6103166004803603602081101561059257600080fd5b50356114ad565b610234600480360360208110156105af57600080fd5b503561150a565b61031661151c565b610335611588565b610316600480360360408110156105dc57600080fd5b5080359060200135611597565b610615600480360360408110156105ff57600080fd5b50803590602001356001600160a01b031661163c565b6040805192835260208301919091528051918290030190f35b6102346116b6565b6103166004803603604081101561064c57600080fd5b506001600160a01b03813581169160200135166116c7565b6103166004803603602081101561067a57600080fd5b50356001600160a01b03166117b4565b60055490565b6000600e54600014156106a5575060006106e6565b600b548211156106e2576106db600e546106d560016106cf600b54876118ac90919063ffffffff16565b906118ac565b906118ee565b90506106e6565b5060005b919050565b600581815481106106f857fe5b60009182526020909120600690910201805460018201546002830154600384015460048501546005909501546001600160a01b0390941695509193909286565b600a5481565b6000808061074b84610690565b9050600061075843610690565b90505b808210156107b957600b54600e5460019093019260009161078791610781908690611930565b90611989565b90506107af6107a8610798836111b0565b6107a2848a6118ac565b90611930565b8590611989565b909550925061075b565b6107d96107d26107c8436111b0565b6107a243896118ac565b8490611989565b95945050505050565b6107ea6119e3565b6000546001600160a01b0390811691161461083a576040805162461bcd60e51b815260206004820181905260248201526000805160206134ad833981519152604482015290519081900360640190fd5b6001600160a01b038216610895576040805162461bcd60e51b815260206004820152601c60248201527f5f6c70546f6b656e20697320746865207a65726f206164647265737300000000604482015290519081900360640190fd5b80156108a3576108a3610f62565b6000600b5443116108b657600b546108b8565b435b600a549091506108c89085611989565b600a556040805160c0810182526001600160a01b038581168252602082018781529282018481526000606084018181526080850182815260a0860183815260058054600180820183559190955296517f036b6384b5eca791c62761152d0c79bb0604c104a5fb6f4eb0703f3154bb3db0600690950294850180546001600160a01b031916919097161790955595517f036b6384b5eca791c62761152d0c79bb0604c104a5fb6f4eb0703f3154bb3db183015591517f036b6384b5eca791c62761152d0c79bb0604c104a5fb6f4eb0703f3154bb3db282015590517f036b6384b5eca791c62761152d0c79bb0604c104a5fb6f4eb0703f3154bb3db382015592517f036b6384b5eca791c62761152d0c79bb0604c104a5fb6f4eb0703f3154bb3db4840155517f036b6384b5eca791c62761152d0c79bb0604c104a5fb6f4eb0703f3154bb3db590920191909155610a1d61068a565b6001600160a01b0390941660009081526008602052604090209303909255505050565b60006001610a4c6116b6565b03821115610a98576040805162461bcd60e51b815260206004820152601460248201527306e6f742066696e642074686973206d756c744c560641b604482015290519081900360640190fd5b610aa36001836119e7565b92915050565b60095460ff1615610afd576040805162461bcd60e51b8152602060048201526019602482015278135a5b9a5b99c81a185cc81899595b881cdd5cdc195b991959603a1b604482015290519081900360640190fd5b600060058381548110610b0c57fe5b600091825260209091206006909102018054909150610b33906001600160a01b0316611162565b15610b4857610b438383336119f3565b610b53565b610b53838333611d7f565b505050565b600b5481565b600060058281548110610b6d57fe5b9060005260206000209060060201905080600201544311610b8e5750610d58565b8054600090610ba5906001600160a01b0316611162565b15610bcb576005820154610bc0575043600290910155610d58565b506005810154610c55565b8154604080516370a0823160e01b815230600482015290516001600160a01b03909216916370a0823191602480820192602092909190829003018186803b158015610c1557600080fd5b505afa158015610c29573d6000803e3d6000fd5b505050506040513d6020811015610c3f57600080fd5b5051905080610c55575043600290910155610d58565b6000610c64836002015461073e565b905060008111610c7657505050610d58565b6000610c95600a546106d586600101548561193090919063ffffffff16565b600354604080516340c10f1960e01b81523060048201526024810184905290519293506000926001600160a01b03909216916340c10f199160448082019260209290919082900301818787803b158015610cee57600080fd5b505af1158015610d02573d6000803e3d6000fd5b505050506040513d6020811015610d1857600080fd5b505190508015610d4957610d43610d38856106d58564e8d4a51000611930565b600387015490611989565b60038601555b43856002018190555050505050505b50565b60095460ff1615610daf576040805162461bcd60e51b8152602060048201526019602482015278135a5b9a5b99c81a185cc81899595b881cdd5cdc195b991959603a1b604482015290519081900360640190fd5b600060058281548110610dbe57fe5b600091825260209091206006909102018054909150610de5906001600160a01b0316611162565b15610df957610df48233611efe565b610e03565b610e038233612145565b5050565b6003546001600160a01b031681565b6000610e206119e3565b6000546001600160a01b03908116911614610e70576040805162461bcd60e51b815260206004820181905260248201526000805160206134ad833981519152604482015290519081900360640190fd5b6001600160a01b038216610ec4576040805162461bcd60e51b81526020600482015260166024820152754c5020697320746865207a65726f206164647265737360501b604482015290519081900360640190fd5b600c546040805163095ea7b360e01b81526001600160a01b039283166004820152600019602482015290519184169163095ea7b3916044808201926020929091908290030181600087803b158015610f1b57600080fd5b505af1158015610f2f573d6000803e3d6000fd5b505050506040513d6020811015610f4557600080fd5b50610aa390506001836121fb565b600e5481565b60095460ff1681565b60055460005b81811015610e0357610f7981610b5e565b600101610f68565b610f896119e3565b6000546001600160a01b03908116911614610fd9576040805162461bcd60e51b815260206004820181905260248201526000805160206134ad833981519152604482015290519081900360640190fd5b8015610fe757610fe7610f62565b61101e8261078160058681548110610ffb57fe5b906000526020600020906006020160010154600a546118ac90919063ffffffff16565b600a81905550816005848154811061103257fe5b906000526020600020906006020160010181905550505050565b600d546001600160a01b031681565b6110636119e3565b6000546001600160a01b039081169116146110b3576040805162461bcd60e51b815260206004820181905260248201526000805160206134ad833981519152604482015290519081900360640190fd5b600080546040516001600160a01b03909116907f8be0079c531659141344cd1fd0a4f28419497f9722a3daafe3b4186f6b6457e0908390a3600080546001600160a01b0319169055565b6111056119e3565b6000546001600160a01b03908116911614611155576040805162461bcd60e51b815260206004820181905260248201526000805160206134ad833981519152604482015290519081900360640190fd5b61115d610f62565b600455565b6000610aa3600183612210565b6000546001600160a01b031690565b60045481565b600660209081526000928352604080842090915290825290208054600182015460029092015490919083565b6000806111bc83610690565b90506111d68160020a6004546118ee90919063ffffffff16565b9392505050565b6111e56119e3565b6000546001600160a01b03908116911614611235576040805162461bcd60e51b815260206004820181905260248201526000805160206134ad833981519152604482015290519081900360640190fd5b6001600160a01b0382161580159061125557506001600160a01b03811615155b61129c576040805162461bcd60e51b8152602060048201526013602482015272697320746865207a65726f206164647265737360681b604482015290519081900360640190fd5b60095460ff1615156001146112ef576040805162461bcd60e51b815260206004820152601460248201527327379036b4b734b7339039bab9b832b739b4b7b760611b604482015290519081900360640190fd5b600d80546001600160a01b038085166001600160a01b031992831617909255600c80549284169290911691909117905560006113296116b6565b90505b8015610b53576000611340600160006119e7565b6001600160a01b03808216600090815260086020908152604080832054600c548185526007909352818420548251632989754760e11b815260048101919091529151959650949190931692635312ea8e92602480830193919282900301818387803b1580156113ae57600080fd5b505af11580156113c2573d6000803e3d6000fd5b505050506113d1600183612225565b5050506000190161132c565b60086020526000908152604090205481565b6113f76119e3565b6000546001600160a01b03908116911614611447576040805162461bcd60e51b815260206004820181905260248201526000805160206134ad833981519152604482015290519081900360640190fd5b600161145161068a565b0382111561149b576040805162461bcd60e51b81526020600482015260126024820152711b9bdd08199a5b99081d1a1a5cc81c1bdbdb60721b604482015290519081900360640190fd5b60009182526007602052604090912055565b6114b56119e3565b6000546001600160a01b03908116911614611505576040805162461bcd60e51b815260206004820181905260248201526000805160206134ad833981519152604482015290519081900360640190fd5b600e55565b60076020526000908152604090205481565b6115246119e3565b6000546001600160a01b03908116911614611574576040805162461bcd60e51b815260206004820181905260248201526000805160206134ad833981519152604482015290519081900360640190fd5b6009805460ff19811660ff90911615179055565b600c546001600160a01b031681565b60095460ff16156115eb576040805162461bcd60e51b8152602060048201526019602482015278135a5b9a5b99c81a185cc81899595b881cdd5cdc195b991959603a1b604482015290519081900360640190fd5b6000600583815481106115fa57fe5b600091825260209091206006909102018054909150611621906001600160a01b0316611162565b1561163157610b4383833361223a565b610b538383336127b4565b60008060006005858154811061164e57fe5b600091825260209091206006909102018054909150611675906001600160a01b0316611162565b156116955760008061168787876128ed565b90955093506116af92505050565b60006116a18686612b1e565b9350600092506116af915050565b9250929050565b60006116c26001612cb4565b905090565b6116cf6119e3565b6000546001600160a01b0390811691161461171f576040805162461bcd60e51b815260206004820181905260248201526000805160206134ad833981519152604482015290519081900360640190fd5b6001600160a01b0382161580159061173f57506001600160a01b03811615155b611786576040805162461bcd60e51b8152602060048201526013602482015272697320746865207a65726f206164647265737360681b604482015290519081900360640190fd5b600d80546001600160a01b039384166001600160a01b031991821617909155600c8054929093169116179055565b6117bc6119e3565b6000546001600160a01b0390811691161461180c576040805162461bcd60e51b815260206004820181905260248201526000805160206134ad833981519152604482015290519081900360640190fd5b6001600160a01b0381166118515760405162461bcd60e51b81526004018080602001828103825260268152602001806134406026913960400191505060405180910390fd5b600080546040516001600160a01b03808516939216917f8be0079c531659141344cd1fd0a4f28419497f9722a3daafe3b4186f6b6457e091a3600080546001600160a01b0319166001600160a01b0392909216919091179055565b60006111d683836040518060400160405280601e81526020017f536166654d6174683a207375627472616374696f6e206f766572666c6f770000815250612cbf565b60006111d683836040518060400160405280601a81526020017f536166654d6174683a206469766973696f6e206279207a65726f000000000000815250612d56565b60008261193f57506000610aa3565b8282028284828161194c57fe5b04146111d65760405162461bcd60e51b815260040180806020018281038252602181526020018061348c6021913960400191505060405180910390fd5b6000828201838110156111d6576040805162461bcd60e51b815260206004820152601b60248201527f536166654d6174683a206164646974696f6e206f766572666c6f770000000000604482015290519081900360640190fd5b3390565b60006111d68383612dbb565b600060058481548110611a0257fe5b60009182526020808320878452600680835260408086206001600160a01b0389168752909352919093208054929091029092019250841115611a8b576040805162461bcd60e51b815260206004820152601d60248201527f77697468647261774d6478416e64546f6b656e3a206e6f7420676f6f64000000604482015290519081900360640190fd5b611a9485610b5e565b6000611ac282600101546106cf64e8d4a510006106d58760030154876000015461193090919063ffffffff16565b90508015611ad457611ad48482612e1f565b8415611cf757600d54604080516370a0823160e01b815230600482015290516000926001600160a01b0316916370a08231916024808301926020929190829003018186803b158015611b2557600080fd5b505afa158015611b39573d6000803e3d6000fd5b505050506040513d6020811015611b4f57600080fd5b5051600c54600089815260076020526040808220548151630441a3e760e41b81526004810191909152602481018b905290519394506001600160a01b039092169263441a3e7092604480820193929182900301818387803b158015611bb357600080fd5b505af1158015611bc7573d6000803e3d6000fd5b5050600d54604080516370a0823160e01b81523060048201529051600094506001600160a01b0390921692506370a08231916024808301926020929190829003018186803b158015611c1857600080fd5b505afa158015611c2c573d6000803e3d6000fd5b505050506040513d6020811015611c4257600080fd5b50516005860154909150611c7290611c67906106d564e8d4a510006107a286886118ac565b600487015490611989565b6004860181905560028501548554600092611c9c92916106cf9164e8d4a51000916106d591611930565b90508015611cbb57600d54611cbb906001600160a01b03168883612faf565b8454611cc790896118ac565b85556005860154611cd890896118ac565b60058701558554611cf3906001600160a01b0316888a612faf565b5050505b60038301548254611d129164e8d4a51000916106d591611930565b600183015560048301548254611d329164e8d4a51000916106d591611930565b600283015560408051868152905187916001600160a01b038716917ff279e6a1f5e320cca91135676d9cb6e44ca8a08c0b88342bcdb1144f6511b5689181900360200190a3505050505050565b600060058481548110611d8e57fe5b60009182526020808320878452600680835260408086206001600160a01b0389168752909352919093208054929091029092019250841115611e0f576040805162461bcd60e51b81526020600482015260156024820152741dda5d1a191c985dd3591e0e881b9bdd0819dbdbd9605a1b604482015290519081900360640190fd5b611e1885610b5e565b6000611e4682600101546106cf64e8d4a510006106d58760030154876000015461193090919063ffffffff16565b90508015611e5857611e588482612e1f565b8415611e96578154611e6a90866118ac565b82556005830154611e7b90866118ac565b60058401558254611e96906001600160a01b03168587612faf565b60038301548254611eb19164e8d4a51000916106d591611930565b600183015560408051868152905187916001600160a01b038716917ff279e6a1f5e320cca91135676d9cb6e44ca8a08c0b88342bcdb1144f6511b5689181900360200190a3505050505050565b600060058381548110611f0d57fe5b60009182526020808320868452600680835260408086206001600160a01b03808a1688529085528187208054600d5484516370a0823160e01b8152306004820152945195909802909501985096939593949316926370a0823192602480840193829003018186803b158015611f8157600080fd5b505afa158015611f95573d6000803e3d6000fd5b505050506040513d6020811015611fab57600080fd5b5051600c54600088815260076020526040808220548151630441a3e760e41b815260048101919091526024810187905290519394506001600160a01b039092169263441a3e7092604480820193929182900301818387803b15801561200f57600080fd5b505af1158015612023573d6000803e3d6000fd5b5050600d54604080516370a0823160e01b81523060048201529051600094506001600160a01b0390921692506370a08231916024808301926020929190829003018186803b15801561207457600080fd5b505afa158015612088573d6000803e3d6000fd5b505050506040513d602081101561209e57600080fd5b505160058601549091506120c390611c67906106d564e8d4a510006107a286886118ac565b60048601556000808555600185015584546120e8906001600160a01b03168785612faf565b60058501546120f790846118ac565b600586015560408051848152905188916001600160a01b038916917fbb757047c2b5f3974fe26b7c10f732e7bce710b0952a71082702781e62ae05959181900360200190a350505050505050565b60006005838154811061215457fe5b60009182526020808320868452600680835260408086206001600160a01b03808a168852945285208054868255600182019690965593020180549094509192916121a091168583612faf565b60058301546121af90826118ac565b600584015560408051828152905186916001600160a01b038716917fbb757047c2b5f3974fe26b7c10f732e7bce710b0952a71082702781e62ae05959181900360200190a35050505050565b60006111d6836001600160a01b038416613001565b60006111d6836001600160a01b03841661304b565b60006111d6836001600160a01b038416613063565b60006005848154811061224957fe5b60009182526020808320878452600680835260408086206001600160a01b0389168752909352919093209102909101915061228385610b5e565b8054156124a55760006122b882600101546106cf64e8d4a510006106d58760030154876000015461193090919063ffffffff16565b905080156122ca576122ca8482612e1f565b600d54604080516370a0823160e01b815230600482015290516000926001600160a01b0316916370a08231916024808301926020929190829003018186803b15801561231557600080fd5b505afa158015612329573d6000803e3d6000fd5b505050506040513d602081101561233f57600080fd5b5051600c54600089815260076020526040808220548151631c57762b60e31b815260048101919091526024810183905290519394506001600160a01b039092169263e2bbb15892604480820193929182900301818387803b1580156123a357600080fd5b505af11580156123b7573d6000803e3d6000fd5b5050600d54604080516370a0823160e01b81523060048201529051600094506001600160a01b0390921692506370a08231916024808301926020929190829003018186803b15801561240857600080fd5b505afa15801561241c573d6000803e3d6000fd5b505050506040513d602081101561243257600080fd5b5051600586015490915061245790611c67906106d564e8d4a510006107a286886118ac565b600486018190556002850154855460009261248192916106cf9164e8d4a51000916106d591611930565b905080156124a057600d546124a0906001600160a01b03168883612faf565b505050505b831561272d5781546124c2906001600160a01b0316843087613129565b600582015461256b57600c54600086815260076020526040808220548151631c57762b60e31b815260048101919091526024810188905290516001600160a01b039093169263e2bbb1589260448084019391929182900301818387803b15801561252b57600080fd5b505af115801561253f573d6000803e3d6000fd5b505082546125509250905085611989565b815560058201546125619085611989565b600583015561272d565b600d54604080516370a0823160e01b815230600482015290516000926001600160a01b0316916370a08231916024808301926020929190829003018186803b1580156125b657600080fd5b505afa1580156125ca573d6000803e3d6000fd5b505050506040513d60208110156125e057600080fd5b5051600c54600088815260076020526040808220548151631c57762b60e31b81526004810191909152602481018a905290519394506001600160a01b039092169263e2bbb15892604480820193929182900301818387803b15801561264457600080fd5b505af1158015612658573d6000803e3d6000fd5b5050600d54604080516370a0823160e01b81523060048201529051600094506001600160a01b0390921692506370a08231916024808301926020929190829003018186803b1580156126a957600080fd5b505afa1580156126bd573d6000803e3d6000fd5b505050506040513d60208110156126d357600080fd5b50516005850154909150612703906126f8906106d564e8d4a510006107a286886118ac565b600486015490611989565b600485015582546127149087611989565b835560058401546127259087611989565b600585015550505b600382015481546127489164e8d4a51000916106d591611930565b6001820155600482015481546127689164e8d4a51000916106d591611930565b600282015560408051858152905186916001600160a01b038616917f90890809c654f11d6e72a28fa60149770a0d11ec6c92319d6ceb2bb0a4ea1a159181900360200190a35050505050565b6000600584815481106127c357fe5b60009182526020808320878452600680835260408086206001600160a01b038916875290935291909320910290910191506127fd85610b5e565b80541561284657600061283282600101546106cf64e8d4a510006106d58760030154876000015461193090919063ffffffff16565b90508015612844576128448482612e1f565b505b8315612886578154612863906001600160a01b0316843087613129565b805461286f9085611989565b815560058201546128809085611989565b60058301555b600382015481546128a19164e8d4a51000916106d591611930565b600182015560408051858152905186916001600160a01b038616917f90890809c654f11d6e72a28fa60149770a0d11ec6c92319d6ceb2bb0a4ea1a159181900360200190a35050505050565b6000806000600585815481106128ff57fe5b60009182526020808320888452600680835260408086206001600160a01b038b168752909352919093209102909101600381015460048201548354929450909115612b0e57600c54600089815260076020908152604080832054815163e4c75c2760e01b81526004810191909152306024820152905192936001600160a01b03169263e4c75c2792604480840193919291829003018186803b1580156129a457600080fd5b505afa1580156129b8573d6000803e3d6000fd5b505050506040513d60208110156129ce57600080fd5b505160058601549091506129f6906129ef906106d58464e8d4a51000611930565b8390611989565b91506000612a2285600201546106cf64e8d4a510006106d5878a6000015461193090919063ffffffff16565b90508560020154431115612ac8576000612a3f876002015461073e565b90506000612a60600a546106d58a600101548561193090919063ffffffff16565b9050612a8c612a8589600501546106d564e8d4a510008561193090919063ffffffff16565b8790611989565b9550612ab687600101546106cf64e8d4a510006106d58a8c6000015461193090919063ffffffff16565b839950995050505050505050506116af565b8560020154431415612b0b57612afc85600101546106cf64e8d4a510006106d5888a6000015461193090919063ffffffff16565b975095506116af945050505050565b50505b5060009788975095505050505050565b60008060058481548110612b2e57fe5b60009182526020808320878452600680835260408086206001600160a01b03808b16885290855281872060039390960290930191820154825482516370a0823160e01b815230600482015292519398509596909590949316926370a0823192602480840193829003018186803b158015612ba757600080fd5b505afa158015612bbb573d6000803e3d6000fd5b505050506040513d6020811015612bd157600080fd5b5051835490915015612ca7578360020154431115612c68576000612bf8856002015461073e565b90506000612c19600a546106d588600101548561193090919063ffffffff16565b9050612c316107a8846106d58464e8d4a51000611930565b9350612c5b85600101546106cf64e8d4a510006106d5888a6000015461193090919063ffffffff16565b9650505050505050610aa3565b8360020154431415612ca757612c9c83600101546106cf64e8d4a510006106d586886000015461193090919063ffffffff16565b945050505050610aa3565b5060009695505050505050565b6000610aa382613189565b60008184841115612d4e5760405162461bcd60e51b81526004018080602001828103825283818151815260200191508051906020019080838360005b83811015612d13578181015183820152602001612cfb565b50505050905090810190601f168015612d405780820380516001836020036101000a031916815260200191505b509250505060405180910390fd5b505050900390565b60008183612da55760405162461bcd60e51b8152602060048201818152835160248401528351909283926044909101919085019080838360008315612d13578181015183820152602001612cfb565b506000838581612db157fe5b0495945050505050565b81546000908210612dfd5760405162461bcd60e51b815260040180806020018281038252602281526020018061341e6022913960400191505060405180910390fd5b826000018281548110612e0c57fe5b9060005260206000200154905092915050565b600354604080516370a0823160e01b815230600482015290516000926001600160a01b0316916370a08231916024808301926020929190829003018186803b158015612e6a57600080fd5b505afa158015612e7e573d6000803e3d6000fd5b505050506040513d6020811015612e9457600080fd5b5051905080821115612f28576003546040805163a9059cbb60e01b81526001600160a01b038681166004830152602482018590529151919092169163a9059cbb9160448083019260209291908290030181600087803b158015612ef657600080fd5b505af1158015612f0a573d6000803e3d6000fd5b505050506040513d6020811015612f2057600080fd5b50610b539050565b6003546040805163a9059cbb60e01b81526001600160a01b038681166004830152602482018690529151919092169163a9059cbb9160448083019260209291908290030181600087803b158015612f7e57600080fd5b505af1158015612f92573d6000803e3d6000fd5b505050506040513d6020811015612fa857600080fd5b5050505050565b604080516001600160a01b038416602482015260448082018490528251808303909101815260649091019091526020810180516001600160e01b031663a9059cbb60e01b179052610b5390849061318d565b600061300d838361304b565b61304357508154600181810184556000848152602080822090930184905584548482528286019093526040902091909155610aa3565b506000610aa3565b60009081526001919091016020526040902054151590565b6000818152600183016020526040812054801561311f578354600019808301919081019060009087908390811061309657fe5b90600052602060002001549050808760000184815481106130b357fe5b6000918252602080832090910192909255828152600189810190925260409020908401905586548790806130e357fe5b60019003818190600052602060002001600090559055866001016000878152602001908152602001600020600090556001945050505050610aa3565b6000915050610aa3565b604080516001600160a01b0380861660248301528416604482015260648082018490528251808303909101815260849091019091526020810180516001600160e01b03166323b872dd60e01b17905261318390859061318d565b50505050565b5490565b60606131e2826040518060400160405280602081526020017f5361666545524332303a206c6f772d6c6576656c2063616c6c206661696c6564815250856001600160a01b031661323e9092919063ffffffff16565b805190915015610b535780806020019051602081101561320157600080fd5b5051610b535760405162461bcd60e51b815260040180806020018281038252602a8152602001806134cd602a913960400191505060405180910390fd5b606061324d8484600085613255565b949350505050565b6060824710156132965760405162461bcd60e51b81526004018080602001828103825260268152602001806134666026913960400191505060405180910390fd5b61329f856133b1565b6132f0576040805162461bcd60e51b815260206004820152601d60248201527f416464726573733a2063616c6c20746f206e6f6e2d636f6e7472616374000000604482015290519081900360640190fd5b60006060866001600160a01b031685876040518082805190602001908083835b6020831061332f5780518252601f199092019160209182019101613310565b6001836020036101000a03801982511681845116808217855250505050505090500191505060006040518083038185875af1925050503d8060008114613391576040519150601f19603f3d011682016040523d82523d6000602084013e613396565b606091505b50915091506133a68282866133b7565b979650505050505050565b3b151590565b606083156133c65750816111d6565b8251156133d65782518084602001fd5b60405162461bcd60e51b8152602060048201818152845160248401528451859391928392604401919085019080838360008315612d13578181015183820152602001612cfb56fe456e756d657261626c655365743a20696e646578206f7574206f6620626f756e64734f776e61626c653a206e6577206f776e657220697320746865207a65726f2061646472657373416464726573733a20696e73756666696369656e742062616c616e636520666f722063616c6c536166654d6174683a206d756c7469706c69636174696f6e206f766572666c6f774f776e61626c653a2063616c6c6572206973206e6f7420746865206f776e65725361666545524332303a204552433230206f7065726174696f6e20646964206e6f742073756363656564a2646970667358221220dab09b873126fdfe8269cbe0f9648522c9015c97a18c73140b24a3d0925bff1864736f6c634300060c0033",
  "linkReferences": {},
  "deployedLinkReferences": {}
}