{
  "_format": "hh-sol-artifact-1",
  "contractName": "SwapMining",
  "sourceName": "contracts/heco/SwapMining.sol",
  "abi": [
    {
      "inputs": [
        {
          "internalType": "contract IMdx",
          "name": "_mdx",
          "type": "address"
        },
        {
          "internalType": "contract IMdexFactory",
          "name": "_factory",
          "type": "address"
        },
        {
          "internalType": "contract IOracle",
          "name": "_oracle",
          "type": "address"
        },
        {
          "internalType": "address",
          "name": "_router",
          "type": "address"
        },
        {
          "internalType": "address",
          "name": "_targetToken",
          "type": "address"
        },
        {
          "internalType": "uint256",
          "name": "_mdxPerBlock",
          "type": "uint256"
        },
        {
          "internalType": "uint256",
          "name": "_startBlock",
          "type": "uint256"
        }
      ],
      "stateMutability": "nonpayable",
      "type": "constructor"
    },
    {
      "anonymous": false,
      "inputs": [
        {
          "indexed": true,
          "internalType": "address",
          "name": "previousOwner",
          "type": "address"
        },
        {
          "indexed": true,
          "internalType": "address",
          "name": "newOwner",
          "type": "address"
        }
      ],
      "name": "OwnershipTransferred",
      "type": "event"
    },
    {
      "inputs": [
        {
          "internalType": "uint256",
          "name": "_allocPoint",
          "type": "uint256"
        },
        {
          "internalType": "address",
          "name": "_pair",
          "type": "address"
        },
        {
          "internalType": "bool",
          "name": "_withUpdate",
          "type": "bool"
        }
      ],
      "name": "addPair",
      "outputs": [],
      "stateMutability": "nonpayable",
      "type": "function"
    },
    {
      "inputs": [
        {
          "internalType": "address",
          "name": "_addToken",
          "type": "address"
        }
      ],
      "name": "addWhitelist",
      "outputs": [
        {
          "internalType": "bool",
          "name": "",
          "type": "bool"
        }
      ],
      "stateMutability": "nonpayable",
      "type": "function"
    },
    {
      "inputs": [
        {
          "internalType": "address",
          "name": "_delToken",
          "type": "address"
        }
      ],
      "name": "delWhitelist",
      "outputs": [
        {
          "internalType": "bool",
          "name": "",
          "type": "bool"
        }
      ],
      "stateMutability": "nonpayable",
      "type": "function"
    },
    {
      "inputs": [],
      "name": "factory",
      "outputs": [
        {
          "internalType": "contract IMdexFactory",
          "name": "",
          "type": "address"
        }
      ],
      "stateMutability": "view",
      "type": "function"
    },
    {
      "inputs": [
        {
          "internalType": "uint256",
          "name": "_lastRewardBlock",
          "type": "uint256"
        }
      ],
      "name": "getMdxReward",
      "outputs": [
        {
          "internalType": "uint256",
          "name": "",
          "type": "uint256"
        }
      ],
      "stateMutability": "view",
      "type": "function"
    },
    {
      "inputs": [
        {
          "internalType": "uint256",
          "name": "_pid",
          "type": "uint256"
        }
      ],
      "name": "getPoolInfo",
      "outputs": [
        {
          "internalType": "address",
          "name": "",
          "type": "address"
        },
        {
          "internalType": "address",
          "name": "",
          "type": "address"
        },
        {
          "internalType": "uint256",
          "name": "",
          "type": "uint256"
        },
        {
          "internalType": "uint256",
          "name": "",
          "type": "uint256"
        },
        {
          "internalType": "uint256",
          "name": "",
          "type": "uint256"
        },
        {
          "internalType": "uint256",
          "name": "",
          "type": "uint256"
        }
      ],
      "stateMutability": "view",
      "type": "function"
    },
    {
      "inputs": [
        {
          "internalType": "address",
          "name": "outputToken",
          "type": "address"
        },
        {
          "internalType": "uint256",
          "name": "outputAmount",
          "type": "uint256"
        },
        {
          "internalType": "address",
          "name": "anchorToken",
          "type": "address"
        }
      ],
      "name": "getQuantity",
      "outputs": [
        {
          "internalType": "uint256",
          "name": "",
          "type": "uint256"
        }
      ],
      "stateMutability": "view",
      "type": "function"
    },
    {
      "inputs": [
        {
          "internalType": "uint256",
          "name": "_pid",
          "type": "uint256"
        }
      ],
      "name": "getUserReward",
      "outputs": [
        {
          "internalType": "uint256",
          "name": "",
          "type": "uint256"
        },
        {
          "internalType": "uint256",
          "name": "",
          "type": "uint256"
        }
      ],
      "stateMutability": "view",
      "type": "function"
    },
    {
      "inputs": [
        {
          "internalType": "uint256",
          "name": "_index",
          "type": "uint256"
        }
      ],
      "name": "getWhitelist",
      "outputs": [
        {
          "internalType": "address",
          "name": "",
          "type": "address"
        }
      ],
      "stateMutability": "view",
      "type": "function"
    },
    {
      "inputs": [],
      "name": "getWhitelistLength",
      "outputs": [
        {
          "internalType": "uint256",
          "name": "",
          "type": "uint256"
        }
      ],
      "stateMutability": "view",
      "type": "function"
    },
    {
      "inputs": [],
      "name": "halvingPeriod",
      "outputs": [
        {
          "internalType": "uint256",
          "name": "",
          "type": "uint256"
        }
      ],
      "stateMutability": "view",
      "type": "function"
    },
    {
      "inputs": [
        {
          "internalType": "address",
          "name": "_token",
          "type": "address"
        }
      ],
      "name": "isWhitelist",
      "outputs": [
        {
          "internalType": "bool",
          "name": "",
          "type": "bool"
        }
      ],
      "stateMutability": "view",
      "type": "function"
    },
    {
      "inputs": [],
      "name": "massMintPools",
      "outputs": [],
      "stateMutability": "nonpayable",
      "type": "function"
    },
    {
      "inputs": [],
      "name": "mdx",
      "outputs": [
        {
          "internalType": "contract IMdx",
          "name": "",
          "type": "address"
        }
      ],
      "stateMutability": "view",
      "type": "function"
    },
    {
      "inputs": [],
      "name": "mdxPerBlock",
      "outputs": [
        {
          "internalType": "uint256",
          "name": "",
          "type": "uint256"
        }
      ],
      "stateMutability": "view",
      "type": "function"
    },
    {
      "inputs": [
        {
          "internalType": "uint256",
          "name": "_pid",
          "type": "uint256"
        }
      ],
      "name": "mint",
      "outputs": [
        {
          "internalType": "bool",
          "name": "",
          "type": "bool"
        }
      ],
      "stateMutability": "nonpayable",
      "type": "function"
    },
    {
      "inputs": [],
      "name": "oracle",
      "outputs": [
        {
          "internalType": "contract IOracle",
          "name": "",
          "type": "address"
        }
      ],
      "stateMutability": "view",
      "type": "function"
    },
    {
      "inputs": [],
      "name": "owner",
      "outputs": [
        {
          "internalType": "address",
          "name": "",
          "type": "address"
        }
      ],
      "stateMutability": "view",
      "type": "function"
    },
    {
      "inputs": [
        {
          "internalType": "address",
          "name": "",
          "type": "address"
        }
      ],
      "name": "pairOfPid",
      "outputs": [
        {
          "internalType": "uint256",
          "name": "",
          "type": "uint256"
        }
      ],
      "stateMutability": "view",
      "type": "function"
    },
    {
      "inputs": [
        {
          "internalType": "uint256",
          "name": "blockNumber",
          "type": "uint256"
        }
      ],
      "name": "phase",
      "outputs": [
        {
          "internalType": "uint256",
          "name": "",
          "type": "uint256"
        }
      ],
      "stateMutability": "view",
      "type": "function"
    },
    {
      "inputs": [],
      "name": "phase",
      "outputs": [
        {
          "internalType": "uint256",
          "name": "",
          "type": "uint256"
        }
      ],
      "stateMutability": "view",
      "type": "function"
    },
    {
      "inputs": [
        {
          "internalType": "uint256",
          "name": "",
          "type": "uint256"
        }
      ],
      "name": "poolInfo",
      "outputs": [
        {
          "internalType": "address",
          "name": "pair",
          "type": "address"
        },
        {
          "internalType": "uint256",
          "name": "quantity",
          "type": "uint256"
        },
        {
          "internalType": "uint256",
          "name": "totalQuantity",
          "type": "uint256"
        },
        {
          "internalType": "uint256",
          "name": "allocPoint",
          "type": "uint256"
        },
        {
          "internalType": "uint256",
          "name": "allocMdxAmount",
          "type": "uint256"
        },
        {
          "internalType": "uint256",
          "name": "lastRewardBlock",
          "type": "uint256"
        }
      ],
      "stateMutability": "view",
      "type": "function"
    },
    {
      "inputs": [],
      "name": "poolLength",
      "outputs": [
        {
          "internalType": "uint256",
          "name": "",
          "type": "uint256"
        }
      ],
      "stateMutability": "view",
      "type": "function"
    },
    {
      "inputs": [],
      "name": "renounceOwnership",
      "outputs": [],
      "stateMutability": "nonpayable",
      "type": "function"
    },
    {
      "inputs": [],
      "name": "reward",
      "outputs": [
        {
          "internalType": "uint256",
          "name": "",
          "type": "uint256"
        }
      ],
      "stateMutability": "view",
      "type": "function"
    },
    {
      "inputs": [
        {
          "internalType": "uint256",
          "name": "blockNumber",
          "type": "uint256"
        }
      ],
      "name": "reward",
      "outputs": [
        {
          "internalType": "uint256",
          "name": "",
          "type": "uint256"
        }
      ],
      "stateMutability": "view",
      "type": "function"
    },
    {
      "inputs": [],
      "name": "router",
      "outputs": [
        {
          "internalType": "address",
          "name": "",
          "type": "address"
        }
      ],
      "stateMutability": "view",
      "type": "function"
    },
    {
      "inputs": [
        {
          "internalType": "uint256",
          "name": "_block",
          "type": "uint256"
        }
      ],
      "name": "setHalvingPeriod",
      "outputs": [],
      "stateMutability": "nonpayable",
      "type": "function"
    },
    {
      "inputs": [
        {
          "internalType": "uint256",
          "name": "_newPerBlock",
          "type": "uint256"
        }
      ],
      "name": "setMdxPerBlock",
      "outputs": [],
      "stateMutability": "nonpayable",
      "type": "function"
    },
    {
      "inputs": [
        {
          "internalType": "contract IOracle",
          "name": "_oracle",
          "type": "address"
        }
      ],
      "name": "setOracle",
      "outputs": [],
      "stateMutability": "nonpayable",
      "type": "function"
    },
    {
      "inputs": [
        {
          "internalType": "uint256",
          "name": "_pid",
          "type": "uint256"
        },
        {
          "internalType": "uint256",
          "name": "_allocPoint",
          "type": "uint256"
        },
        {
          "internalType": "bool",
          "name": "_withUpdate",
          "type": "bool"
        }
      ],
      "name": "setPair",
      "outputs": [],
      "stateMutability": "nonpayable",
      "type": "function"
    },
    {
      "inputs": [
        {
          "internalType": "address",
          "name": "newRouter",
          "type": "address"
        }
      ],
      "name": "setRouter",
      "outputs": [],
      "stateMutability": "nonpayable",
      "type": "function"
    },
    {
      "inputs": [],
      "name": "startBlock",
      "outputs": [
        {
          "internalType": "uint256",
          "name": "",
          "type": "uint256"
        }
      ],
      "stateMutability": "view",
      "type": "function"
    },
    {
      "inputs": [
        {
          "internalType": "address",
          "name": "account",
          "type": "address"
        },
        {
          "internalType": "address",
          "name": "input",
          "type": "address"
        },
        {
          "internalType": "address",
          "name": "output",
          "type": "address"
        },
        {
          "internalType": "uint256",
          "name": "amount",
          "type": "uint256"
        }
      ],
      "name": "swap",
      "outputs": [
        {
          "internalType": "bool",
          "name": "",
          "type": "bool"
        }
      ],
      "stateMutability": "nonpayable",
      "type": "function"
    },
    {
      "inputs": [],
      "name": "takerWithdraw",
      "outputs": [],
      "stateMutability": "nonpayable",
      "type": "function"
    },
    {
      "inputs": [],
      "name": "targetToken",
      "outputs": [
        {
          "internalType": "address",
          "name": "",
          "type": "address"
        }
      ],
      "stateMutability": "view",
      "type": "function"
    },
    {
      "inputs": [],
      "name": "totalAllocPoint",
      "outputs": [
        {
          "internalType": "uint256",
          "name": "",
          "type": "uint256"
        }
      ],
      "stateMutability": "view",
      "type": "function"
    },
    {
      "inputs": [
        {
          "internalType": "address",
          "name": "newOwner",
          "type": "address"
        }
      ],
      "name": "transferOwnership",
      "outputs": [],
      "stateMutability": "nonpayable",
      "type": "function"
    },
    {
      "inputs": [
        {
          "internalType": "uint256",
          "name": "",
          "type": "uint256"
        },
        {
          "internalType": "address",
          "name": "",
          "type": "address"
        }
      ],
      "name": "userInfo",
      "outputs": [
        {
          "internalType": "uint256",
          "name": "quantity",
          "type": "uint256"
        },
        {
          "internalType": "uint256",
          "name": "blockNumber",
          "type": "uint256"
        }
      ],
      "stateMutability": "view",
      "type": "function"
    }
  ],
  "bytecode": "0x608060405262503340600555600060065534801561001c57600080fd5b50604051612733380380612733833981810160405260e081101561003f57600080fd5b508051602082015160408301516060840151608085015160a086015160c0909601519495939492939192909190600061007661012d565b600080546001600160a01b0319166001600160a01b0383169081178255604051929350917f8be0079c531659141344cd1fd0a4f28419497f9722a3daafe3b4186f6b6457e0908290a350600a80546001600160a01b03199081166001600160a01b03998a1617909155600980548216978916979097179096556007805487169588169590951790945560088054861693871693909317909255600b8054909416941693909317909155600391909155600455610131565b3390565b6125f3806101406000396000f3fe608060405234801561001057600080fd5b506004361061023d5760003560e01c806396db752a1161013b578063b5ec5c99116100b8578063e377fe351161007c578063e377fe3514610627578063f2fde38b14610644578063f80f5dd51461066a578063f887ea4014610690578063f9d181f9146106985761023d565b8063b5ec5c99146105ae578063b872dd0e146105cb578063c0d78655146105d3578063c45a0155146105f9578063c683630d146106015761023d565b8063a13202e9116100ff578063a13202e91461050f578063a7ef67f614610517578063a9678a181461054d578063a9fb763c14610589578063b1c9fe6e146105a65761023d565b806396db752a1461047657806397ecfaab146104935780639f4ece2e146104cd5780639fb08cb7146104d5578063a0712d68146104f25761023d565b806348cd4cb1116101c95780637adbf9731161018d5780637adbf973146103f35780637dc0d1d0146104195780638da5cb5b146104215780638fa39a881461042957806393f1a40b146104315761023d565b806348cd4cb1146103b65780635672ab55146103be5780635a3e251f146103c6578063715018a6146103ce578063791ba374146103d65761023d565b806317caf6f11161021057806317caf6f1146102f9578063190cf6c914610301578063228cb7331461032e5780632f380b3514610336578063327107f7146103925761023d565b80630495de5014610242578063081e3eda1461027a578063135f8aa7146102825780631526fe271461029f575b600080fd5b6102686004803603602081101561025857600080fd5b50356001600160a01b03166106cc565b60408051918252519081900360200190f35b6102686106de565b6102686004803603602081101561029857600080fd5b50356106e4565b6102bc600480360360208110156102b557600080fd5b503561073f565b604080516001600160a01b0390971687526020870195909552858501939093526060850191909152608084015260a0830152519081900360c00190f35b61026861078c565b61032c6004803603606081101561031757600080fd5b50803590602081013590604001351515610792565b005b610268610863565b6103536004803603602081101561034c57600080fd5b5035610873565b604080516001600160a01b039788168152959096166020860152848601939093526060840191909152608083015260a082015290519081900360c00190f35b61039a610a8f565b604080516001600160a01b039092168252519081900360200190f35b610268610a9e565b61039a610aa4565b610268610ab3565b61032c610ab9565b61032c600480360360208110156103ec57600080fd5b5035610b5b565b61032c6004803603602081101561040957600080fd5b50356001600160a01b0316610bc0565b61039a610c7f565b61039a610c8e565b610268610c9d565b61045d6004803603604081101561044757600080fd5b50803590602001356001600160a01b0316610ca3565b6040805192835260208301919091528051918290030190f35b61039a6004803603602081101561048c57600080fd5b5035610cc7565b6104b9600480360360208110156104a957600080fd5b50356001600160a01b0316610d39565b604080519115158252519081900360200190f35b61032c610de3565b61045d600480360360208110156104eb57600080fd5b5035610e07565b6104b96004803603602081101561050857600080fd5b5035610f9b565b6102686110bb565b6102686004803603606081101561052d57600080fd5b506001600160a01b038135811691602081013591604090910135166110c7565b6104b96004803603608081101561056357600080fd5b506001600160a01b0381358116916020810135821691604082013516906060013561148a565b6102686004803603602081101561059f57600080fd5b50356117a1565b6102686117ce565b61032c600480360360208110156105c457600080fd5b50356117d9565b61032c611836565b61032c600480360360208110156105e957600080fd5b50356001600160a01b0316611997565b61039a611a56565b6104b96004803603602081101561061757600080fd5b50356001600160a01b0316611a65565b6102686004803603602081101561063d57600080fd5b5035611a72565b61032c6004803603602081101561065a57600080fd5b50356001600160a01b0316611b4a565b6104b96004803603602081101561068057600080fd5b50356001600160a01b0316611c42565b61039a611cec565b61032c600480360360608110156106ae57600080fd5b508035906001600160a01b0360208201351690604001351515611cfb565b600c6020526000908152604090205481565b600d5490565b6000600554600014156106f95750600061073a565b6004548211156107365761072f600554610729600161072360045487611f5990919063ffffffff16565b90611f59565b90611f9b565b905061073a565b5060005b919050565b600d818154811061074c57fe5b60009182526020909120600690910201805460018201546002830154600384015460048501546005909501546001600160a01b0390941695509193909286565b60065481565b61079a611fdd565b6000546001600160a01b039081169116146107ea576040805162461bcd60e51b8152602060048201819052602482015260008051602061253c833981519152604482015290519081900360640190fd5b80156107f8576107f8610de3565b6108358261082f600d868154811061080c57fe5b906000526020600020906006020160030154600654611f5990919063ffffffff16565b90611fe1565b60068190555081600d848154811061084957fe5b906000526020600020906006020160030181905550505050565b600061086e436117a1565b905090565b6000806000806000806001600d80549050038711156108d9576040805162461bcd60e51b815260206004820152601e60248201527f537761704d696e696e673a204e6f742066696e64207468697320706f6f6c0000604482015290519081900360640190fd5b6108e1612376565b600d88815481106108ee57fe5b600091825260208083206040805160c081018252600690940290910180546001600160a01b031680855260018201548585015260028201548584015260038201546060860152600480830154608087015260059092015460a08601528251630dfe168160e01b8152925194965093630dfe16819383830193909290829003018186803b15801561097d57600080fd5b505afa158015610991573d6000803e3d6000fd5b505050506040513d60208110156109a757600080fd5b505182516040805163d21220a760e01b815290519293506000926001600160a01b039092169163d21220a791600480820192602092909190829003018186803b1580156109f357600080fd5b505afa158015610a07573d6000803e3d6000fd5b505050506040513d6020811015610a1d57600080fd5b5051608084015160a085015191925090600090610a3990611a72565b90506000610a5a60065461072988606001518561203b90919063ffffffff16565b9050610a668382611fe1565b60408701516020880151606090980151969f959e50909c509a5094985092965090945050505050565b600b546001600160a01b031681565b60045481565b600a546001600160a01b031681565b60055481565b610ac1611fdd565b6000546001600160a01b03908116911614610b11576040805162461bcd60e51b8152602060048201819052602482015260008051602061253c833981519152604482015290519081900360640190fd5b600080546040516001600160a01b03909116907f8be0079c531659141344cd1fd0a4f28419497f9722a3daafe3b4186f6b6457e0908390a3600080546001600160a01b0319169055565b610b63611fdd565b6000546001600160a01b03908116911614610bb3576040805162461bcd60e51b8152602060048201819052602482015260008051602061253c833981519152604482015290519081900360640190fd5b610bbb610de3565b600355565b610bc8611fdd565b6000546001600160a01b03908116911614610c18576040805162461bcd60e51b8152602060048201819052602482015260008051602061253c833981519152604482015290519081900360640190fd5b6001600160a01b038116610c5d5760405162461bcd60e51b815260040180806020018281038252602a8152602001806124cd602a913960400191505060405180910390fd5b600780546001600160a01b0319166001600160a01b0392909216919091179055565b6007546001600160a01b031681565b6000546001600160a01b031690565b60035481565b600e6020908152600092835260408084209091529082529020805460019091015482565b60006001610cd36110bb565b03821115610d28576040805162461bcd60e51b815260206004820152601f60248201527f537761704d696e696e673a20696e646578206f7574206f6620626f756e647300604482015290519081900360640190fd5b610d33600183612094565b92915050565b6000610d43611fdd565b6000546001600160a01b03908116911614610d93576040805162461bcd60e51b8152602060048201819052602482015260008051602061253c833981519152604482015290519081900360640190fd5b6001600160a01b038216610dd85760405162461bcd60e51b81526004018080602001828103825260258152602001806124776025913960400191505060405180910390fd5b610d336001836120a0565b600d5460005b81811015610e0357610dfa81610f9b565b50600101610de9565b5050565b600d54600090819060001901831115610e67576040805162461bcd60e51b815260206004820152601e60248201527f537761704d696e696e673a204e6f742066696e64207468697320706f6f6c0000604482015290519081900360640190fd5b6000610e71612376565b600d8581548110610e7e57fe5b60009182526020918290206040805160c081018252600690930290910180546001600160a01b03168352600181015493830193909352600283015490820152600382015460608201526004820154608082015260059091015460a08201529050610ee66123b5565b506000858152600e60209081526040808320338452825291829020825180840190935280548084526001909101549183019190915215610f8e576000610f2f8360a00151611a72565b90506000610f5060065461072986606001518561203b90919063ffffffff16565b9050610f89610f8285602001516107298660000151610f7c868a60800151611fe190919063ffffffff16565b9061203b565b8690611fe1565b945050505b5191935090915050915091565b600080600d8381548110610fab57fe5b9060005260206000209060060201905080600501544311610fd057600091505061073a565b6000610fdf8260050154611a72565b905060008111610ff45760009250505061073a565b600061101360065461072985600301548561203b90919063ffffffff16565b600a54604080516340c10f1960e01b81523060048201526024810184905290519293506001600160a01b03909116916340c10f19916044808201926020929091908290030181600087803b15801561106a57600080fd5b505af115801561107e573d6000803e3d6000fd5b505050506040513d602081101561109457600080fd5b505060048301546110a59082611fe1565b6004840155505043600590910155506001919050565b600061086e60016120b5565b6000806001600160a01b0385811690841614156110e5575082611482565b6009546040805163e6a4390560e01b81526001600160a01b038881166004830152868116602483015291516000939092169163e6a4390591604480820192602092909190829003018186803b15801561113d57600080fd5b505afa158015611151573d6000803e3d6000fd5b505050506040513d602081101561116757600080fd5b50516001600160a01b0316146112065760075460408051632321bc7960e21b81526001600160a01b03888116600483015260248201889052868116604483015291519190921691638c86f1e4916064808301926020929190829003018186803b1580156111d357600080fd5b505afa1580156111e7573d6000803e3d6000fd5b505050506040513d60208110156111fd57600080fd5b50519050611482565b60006112106110bb565b905060005b8181101561147f57600061122882610cc7565b6009546040805163e6a4390560e01b81526001600160a01b038c8116600483015284811660248301529151939450600093919092169163e6a43905916044808301926020929190829003018186803b15801561128357600080fd5b505afa158015611297573d6000803e3d6000fd5b505050506040513d60208110156112ad57600080fd5b50516001600160a01b03161480159061135157506009546040805163e6a4390560e01b81526001600160a01b038481166004830152898116602483015291516000939092169163e6a4390591604480820192602092909190829003018186803b15801561131957600080fd5b505afa15801561132d573d6000803e3d6000fd5b505050506040513d602081101561134357600080fd5b50516001600160a01b031614155b156114765760075460408051632321bc7960e21b81526001600160a01b038b81166004830152602482018b9052848116604483015291516000939290921691638c86f1e491606480820192602092909190829003018186803b1580156113b657600080fd5b505afa1580156113ca573d6000803e3d6000fd5b505050506040513d60208110156113e057600080fd5b505160075460408051632321bc7960e21b81526001600160a01b038681166004830152602482018590528b811660448301529151939450911691638c86f1e491606480820192602092909190829003018186803b15801561144057600080fd5b505afa158015611454573d6000803e3d6000fd5b505050506040513d602081101561146a57600080fd5b5051945061147f915050565b50600101611215565b50505b949350505050565b6008546000906001600160a01b031633146114d65760405162461bcd60e51b81526004018080602001828103825260248152602001806124f76024913960400191505060405180910390fd5b6001600160a01b03851661151b5760405162461bcd60e51b815260040180806020018281038252603281526020018061255c6032913960400191505060405180910390fd5b6001600160a01b0384166115605760405162461bcd60e51b815260040180806020018281038252603081526020018061258e6030913960400191505060405180910390fd5b6001600160a01b0383166115a55760405162461bcd60e51b815260040180806020018281038252603181526020018061249c6031913960400191505060405180910390fd5b60006115af6106de565b116115bc57506000611482565b6115c584611a65565b15806115d757506115d583611a65565b155b156115e457506000611482565b600954604080516396ed28f960e01b81526001600160a01b0387811660048301528681166024830152915160009392909216916396ed28f991604480820192602092909190829003018186803b15801561163d57600080fd5b505afa158015611651573d6000803e3d6000fd5b505050506040513d602081101561166757600080fd5b50516001600160a01b0381166000908152600c6020526040812054600d80549394509192811061169357fe5b6000918252602090912060069091020180549091506001600160a01b0383811691161415806116c457506003810154155b156116d457600092505050611482565b600b546000906116f090879087906001600160a01b03166110c7565b9050600081116117065760009350505050611482565b6001600160a01b0383166000908152600c602052604090205461172890610f9b565b5060018201546117389082611fe1565b6001830155600282015461174c9082611fe1565b60028301556001600160a01b038084166000908152600c60209081526040808320548352600e8252808320938c16835292905220805461178c9083611fe1565b81554360019182015598975050505050505050565b6000806117ad836106e4565b90506117c78160020a600354611f9b90919063ffffffff16565b9392505050565b600061086e436106e4565b6117e1611fdd565b6000546001600160a01b03908116911614611831576040805162461bcd60e51b8152602060048201819052602482015260008051602061253c833981519152604482015290519081900360640190fd5b600555565b600d54600090815b81811015611902576000600d828154811061185557fe5b60009182526020808320858452600e825260408085203386529092529220805460069092029092019250156118f85761188d83610f9b565b5060006118b383600101546107298460000154866004015461203b90919063ffffffff16565b825460018501549192506118c79190611f59565b600184015560048301546118db9082611f59565b6004840155600082554360018301556118f48682611fe1565b9550505b505060010161183e565b5060008211611912575050611995565b600a546040805163a9059cbb60e01b81523360048201526024810185905290516001600160a01b039092169163a9059cbb916044808201926020929091908290030181600087803b15801561196657600080fd5b505af115801561197a573d6000803e3d6000fd5b505050506040513d602081101561199057600080fd5b505050505b565b61199f611fdd565b6000546001600160a01b039081169116146119ef576040805162461bcd60e51b8152602060048201819052602482015260008051602061253c833981519152604482015290519081900360640190fd5b6001600160a01b038116611a345760405162461bcd60e51b815260040180806020018281038252602a8152602001806123f2602a913960400191505060405180910390fd5b600880546001600160a01b0319166001600160a01b0392909216919091179055565b6009546001600160a01b031681565b6000610d336001836120c0565b600043821115611ab35760405162461bcd60e51b81526004018080602001828103825260358152602001806124426035913960400191505060405180910390fd5b600080611abf846106e4565b90506000611acc436106e4565b90505b80821015611b2157600454600554600190930192600091611af59161082f90869061203b565b9050611b17611b10611b06836117a1565b610f7c848a611f59565b8590611fe1565b9095509250611acf565b611b41611b3a611b30436117a1565b610f7c4389611f59565b8490611fe1565b95945050505050565b611b52611fdd565b6000546001600160a01b03908116911614611ba2576040805162461bcd60e51b8152602060048201819052602482015260008051602061253c833981519152604482015290519081900360640190fd5b6001600160a01b038116611be75760405162461bcd60e51b815260040180806020018281038252602681526020018061241c6026913960400191505060405180910390fd5b600080546040516001600160a01b03808516939216917f8be0079c531659141344cd1fd0a4f28419497f9722a3daafe3b4186f6b6457e091a3600080546001600160a01b0319166001600160a01b0392909216919091179055565b6000611c4c611fdd565b6000546001600160a01b03908116911614611c9c576040805162461bcd60e51b8152602060048201819052602482015260008051602061253c833981519152604482015290519081900360640190fd5b6001600160a01b038216611ce15760405162461bcd60e51b81526004018080602001828103825260258152602001806124776025913960400191505060405180910390fd5b610d336001836120d5565b6008546001600160a01b031681565b611d03611fdd565b6000546001600160a01b03908116911614611d53576040805162461bcd60e51b8152602060048201819052602482015260008051602061253c833981519152604482015290519081900360640190fd5b6001600160a01b038216611dae576040805162461bcd60e51b815260206004820152601960248201527f5f7061697220697320746865207a65726f206164647265737300000000000000604482015290519081900360640190fd5b8015611dbc57611dbc610de3565b60006004544311611dcf57600454611dd1565b435b600654909150611de19085611fe1565b60069081556040805160c0810182526001600160a01b038681168252600060208301818152938301818152606084018a81526080850183815260a08601898152600d8054600180820183559190965296517fd7b6990105719101dabeb77144f2a3385c8033acd3af97e9423a695e81ad1eb59590990294850180546001600160a01b031916999096169890981790945594517fd7b6990105719101dabeb77144f2a3385c8033acd3af97e9423a695e81ad1eb6830155517fd7b6990105719101dabeb77144f2a3385c8033acd3af97e9423a695e81ad1eb782015592517fd7b6990105719101dabeb77144f2a3385c8033acd3af97e9423a695e81ad1eb8840155517fd7b6990105719101dabeb77144f2a3385c8033acd3af97e9423a695e81ad1eb983015591517fd7b6990105719101dabeb77144f2a3385c8033acd3af97e9423a695e81ad1eba90910155611f366106de565b6001600160a01b039094166000908152600c602052604090209303909255505050565b60006117c783836040518060400160405280601e81526020017f536166654d6174683a207375627472616374696f6e206f766572666c6f7700008152506120ea565b60006117c783836040518060400160405280601a81526020017f536166654d6174683a206469766973696f6e206279207a65726f000000000000815250612181565b3390565b6000828201838110156117c7576040805162461bcd60e51b815260206004820152601b60248201527f536166654d6174683a206164646974696f6e206f766572666c6f770000000000604482015290519081900360640190fd5b60008261204a57506000610d33565b8282028284828161205757fe5b04146117c75760405162461bcd60e51b815260040180806020018281038252602181526020018061251b6021913960400191505060405180910390fd5b60006117c783836121e6565b60006117c7836001600160a01b03841661224a565b6000610d3382612310565b60006117c7836001600160a01b038416612314565b60006117c7836001600160a01b03841661232c565b600081848411156121795760405162461bcd60e51b81526004018080602001828103825283818151815260200191508051906020019080838360005b8381101561213e578181015183820152602001612126565b50505050905090810190601f16801561216b5780820380516001836020036101000a031916815260200191505b509250505060405180910390fd5b505050900390565b600081836121d05760405162461bcd60e51b815260206004820181815283516024840152835190928392604490910191908501908083836000831561213e578181015183820152602001612126565b5060008385816121dc57fe5b0495945050505050565b815460009082106122285760405162461bcd60e51b81526004018080602001828103825260228152602001806123d06022913960400191505060405180910390fd5b82600001828154811061223757fe5b9060005260206000200154905092915050565b60008181526001830160205260408120548015612306578354600019808301919081019060009087908390811061227d57fe5b906000526020600020015490508087600001848154811061229a57fe5b6000918252602080832090910192909255828152600189810190925260409020908401905586548790806122ca57fe5b60019003818190600052602060002001600090559055866001016000878152602001908152602001600020600090556001945050505050610d33565b6000915050610d33565b5490565b60009081526001919091016020526040902054151590565b60006123388383612314565b61236e57508154600181810184556000848152602080822090930184905584548482528286019093526040902091909155610d33565b506000610d33565b6040518060c0016040528060006001600160a01b0316815260200160008152602001600081526020016000815260200160008152602001600081525090565b60405180604001604052806000815260200160008152509056fe456e756d657261626c655365743a20696e646578206f7574206f6620626f756e6473537761704d696e696e673a206e657720726f7574657220697320746865207a65726f20616464726573734f776e61626c653a206e6577206f776e657220697320746865207a65726f2061646472657373537761704d696e696e673a206d757374206c6974746c65207468616e207468652063757272656e7420626c6f636b206e756d626572537761704d696e696e673a20746f6b656e20697320746865207a65726f2061646472657373537761704d696e696e673a2074616b65722073776170206f757470757420697320746865207a65726f2061646472657373537761704d696e696e673a206e6577206f7261636c6520697320746865207a65726f2061646472657373537761704d696e696e673a2063616c6c6572206973206e6f742074686520726f75746572536166654d6174683a206d756c7469706c69636174696f6e206f766572666c6f774f776e61626c653a2063616c6c6572206973206e6f7420746865206f776e6572537761704d696e696e673a2074616b65722073776170206163636f756e7420697320746865207a65726f2061646472657373537761704d696e696e673a2074616b6572207377617020696e70757420697320746865207a65726f2061646472657373a2646970667358221220138f0f09401394f7b3bbec9119854482a92da97620dd4bcf7f822293f652bdd964736f6c634300060c0033",
  "linkReferences": {},
  "deployedLinkReferences": {}
}