{
  "_format": "hh-sol-artifact-1",
  "contractName": "MdexRouter",
  "sourceName": "contracts/heco/Router.sol",
  "abi": [
    {
      "inputs": [
        {
          "internalType": "address",
          "name": "_factory",
          "type": "address"
        },
        {
          "internalType": "address",
          "name": "_WHT",
          "type": "address"
        }
      ],
      "stateMutability": "nonpayable",
      "type": "constructor"
    },
    {
      "anonymous": false,
      "inputs": [
        {
          "indexed": true,
          "internalType": "address",
          "name": "previousOwner",
          "type": "address"
        },
        {
          "indexed": true,
          "internalType": "address",
          "name": "newOwner",
          "type": "address"
        }
      ],
      "name": "OwnershipTransferred",
      "type": "event"
    },
    {
      "inputs": [],
      "name": "WHT",
      "outputs": [
        {
          "internalType": "address",
          "name": "",
          "type": "address"
        }
      ],
      "stateMutability": "view",
      "type": "function"
    },
    {
      "inputs": [
        {
          "internalType": "address",
          "name": "tokenA",
          "type": "address"
        },
        {
          "internalType": "address",
          "name": "tokenB",
          "type": "address"
        },
        {
          "internalType": "uint256",
          "name": "amountADesired",
          "type": "uint256"
        },
        {
          "internalType": "uint256",
          "name": "amountBDesired",
          "type": "uint256"
        },
        {
          "internalType": "uint256",
          "name": "amountAMin",
          "type": "uint256"
        },
        {
          "internalType": "uint256",
          "name": "amountBMin",
          "type": "uint256"
        },
        {
          "internalType": "address",
          "name": "to",
          "type": "address"
        },
        {
          "internalType": "uint256",
          "name": "deadline",
          "type": "uint256"
        }
      ],
      "name": "addLiquidity",
      "outputs": [
        {
          "internalType": "uint256",
          "name": "amountA",
          "type": "uint256"
        },
        {
          "internalType": "uint256",
          "name": "amountB",
          "type": "uint256"
        },
        {
          "internalType": "uint256",
          "name": "liquidity",
          "type": "uint256"
        }
      ],
      "stateMutability": "nonpayable",
      "type": "function"
    },
    {
      "inputs": [
        {
          "internalType": "address",
          "name": "token",
          "type": "address"
        },
        {
          "internalType": "uint256",
          "name": "amountTokenDesired",
          "type": "uint256"
        },
        {
          "internalType": "uint256",
          "name": "amountTokenMin",
          "type": "uint256"
        },
        {
          "internalType": "uint256",
          "name": "amountETHMin",
          "type": "uint256"
        },
        {
          "internalType": "address",
          "name": "to",
          "type": "address"
        },
        {
          "internalType": "uint256",
          "name": "deadline",
          "type": "uint256"
        }
      ],
      "name": "addLiquidityETH",
      "outputs": [
        {
          "internalType": "uint256",
          "name": "amountToken",
          "type": "uint256"
        },
        {
          "internalType": "uint256",
          "name": "amountETH",
          "type": "uint256"
        },
        {
          "internalType": "uint256",
          "name": "liquidity",
          "type": "uint256"
        }
      ],
      "stateMutability": "payable",
      "type": "function"
    },
    {
      "inputs": [],
      "name": "factory",
      "outputs": [
        {
          "internalType": "address",
          "name": "",
          "type": "address"
        }
      ],
      "stateMutability": "view",
      "type": "function"
    },
    {
      "inputs": [
        {
          "internalType": "uint256",
          "name": "amountOut",
          "type": "uint256"
        },
        {
          "internalType": "uint256",
          "name": "reserveIn",
          "type": "uint256"
        },
        {
          "internalType": "uint256",
          "name": "reserveOut",
          "type": "uint256"
        }
      ],
      "name": "getAmountIn",
      "outputs": [
        {
          "internalType": "uint256",
          "name": "amountIn",
          "type": "uint256"
        }
      ],
      "stateMutability": "view",
      "type": "function"
    },
    {
      "inputs": [
        {
          "internalType": "uint256",
          "name": "amountIn",
          "type": "uint256"
        },
        {
          "internalType": "uint256",
          "name": "reserveIn",
          "type": "uint256"
        },
        {
          "internalType": "uint256",
          "name": "reserveOut",
          "type": "uint256"
        }
      ],
      "name": "getAmountOut",
      "outputs": [
        {
          "internalType": "uint256",
          "name": "amountOut",
          "type": "uint256"
        }
      ],
      "stateMutability": "view",
      "type": "function"
    },
    {
      "inputs": [
        {
          "internalType": "uint256",
          "name": "amountOut",
          "type": "uint256"
        },
        {
          "internalType": "address[]",
          "name": "path",
          "type": "address[]"
        }
      ],
      "name": "getAmountsIn",
      "outputs": [
        {
          "internalType": "uint256[]",
          "name": "amounts",
          "type": "uint256[]"
        }
      ],
      "stateMutability": "view",
      "type": "function"
    },
    {
      "inputs": [
        {
          "internalType": "uint256",
          "name": "amountIn",
          "type": "uint256"
        },
        {
          "internalType": "address[]",
          "name": "path",
          "type": "address[]"
        }
      ],
      "name": "getAmountsOut",
      "outputs": [
        {
          "internalType": "uint256[]",
          "name": "amounts",
          "type": "uint256[]"
        }
      ],
      "stateMutability": "view",
      "type": "function"
    },
    {
      "inputs": [],
      "name": "owner",
      "outputs": [
        {
          "internalType": "address",
          "name": "",
          "type": "address"
        }
      ],
      "stateMutability": "view",
      "type": "function"
    },
    {
      "inputs": [
        {
          "internalType": "address",
          "name": "tokenA",
          "type": "address"
        },
        {
          "internalType": "address",
          "name": "tokenB",
          "type": "address"
        }
      ],
      "name": "pairFor",
      "outputs": [
        {
          "internalType": "address",
          "name": "pair",
          "type": "address"
        }
      ],
      "stateMutability": "view",
      "type": "function"
    },
    {
      "inputs": [
        {
          "internalType": "uint256",
          "name": "amountA",
          "type": "uint256"
        },
        {
          "internalType": "uint256",
          "name": "reserveA",
          "type": "uint256"
        },
        {
          "internalType": "uint256",
          "name": "reserveB",
          "type": "uint256"
        }
      ],
      "name": "quote",
      "outputs": [
        {
          "internalType": "uint256",
          "name": "amountB",
          "type": "uint256"
        }
      ],
      "stateMutability": "view",
      "type": "function"
    },
    {
      "inputs": [
        {
          "internalType": "address",
          "name": "tokenA",
          "type": "address"
        },
        {
          "internalType": "address",
          "name": "tokenB",
          "type": "address"
        },
        {
          "internalType": "uint256",
          "name": "liquidity",
          "type": "uint256"
        },
        {
          "internalType": "uint256",
          "name": "amountAMin",
          "type": "uint256"
        },
        {
          "internalType": "uint256",
          "name": "amountBMin",
          "type": "uint256"
        },
        {
          "internalType": "address",
          "name": "to",
          "type": "address"
        },
        {
          "internalType": "uint256",
          "name": "deadline",
          "type": "uint256"
        }
      ],
      "name": "removeLiquidity",
      "outputs": [
        {
          "internalType": "uint256",
          "name": "amountA",
          "type": "uint256"
        },
        {
          "internalType": "uint256",
          "name": "amountB",
          "type": "uint256"
        }
      ],
      "stateMutability": "nonpayable",
      "type": "function"
    },
    {
      "inputs": [
        {
          "internalType": "address",
          "name": "token",
          "type": "address"
        },
        {
          "internalType": "uint256",
          "name": "liquidity",
          "type": "uint256"
        },
        {
          "internalType": "uint256",
          "name": "amountTokenMin",
          "type": "uint256"
        },
        {
          "internalType": "uint256",
          "name": "amountETHMin",
          "type": "uint256"
        },
        {
          "internalType": "address",
          "name": "to",
          "type": "address"
        },
        {
          "internalType": "uint256",
          "name": "deadline",
          "type": "uint256"
        }
      ],
      "name": "removeLiquidityETH",
      "outputs": [
        {
          "internalType": "uint256",
          "name": "amountToken",
          "type": "uint256"
        },
        {
          "internalType": "uint256",
          "name": "amountETH",
          "type": "uint256"
        }
      ],
      "stateMutability": "nonpayable",
      "type": "function"
    },
    {
      "inputs": [
        {
          "internalType": "address",
          "name": "token",
          "type": "address"
        },
        {
          "internalType": "uint256",
          "name": "liquidity",
          "type": "uint256"
        },
        {
          "internalType": "uint256",
          "name": "amountTokenMin",
          "type": "uint256"
        },
        {
          "internalType": "uint256",
          "name": "amountETHMin",
          "type": "uint256"
        },
        {
          "internalType": "address",
          "name": "to",
          "type": "address"
        },
        {
          "internalType": "uint256",
          "name": "deadline",
          "type": "uint256"
        }
      ],
      "name": "removeLiquidityETHSupportingFeeOnTransferTokens",
      "outputs": [
        {
          "internalType": "uint256",
          "name": "amountETH",
          "type": "uint256"
        }
      ],
      "stateMutability": "nonpayable",
      "type": "function"
    },
    {
      "inputs": [
        {
          "internalType": "address",
          "name": "token",
          "type": "address"
        },
        {
          "internalType": "uint256",
          "name": "liquidity",
          "type": "uint256"
        },
        {
          "internalType": "uint256",
          "name": "amountTokenMin",
          "type": "uint256"
        },
        {
          "internalType": "uint256",
          "name": "amountETHMin",
          "type": "uint256"
        },
        {
          "internalType": "address",
          "name": "to",
          "type": "address"
        },
        {
          "internalType": "uint256",
          "name": "deadline",
          "type": "uint256"
        },
        {
          "internalType": "bool",
          "name": "approveMax",
          "type": "bool"
        },
        {
          "internalType": "uint8",
          "name": "v",
          "type": "uint8"
        },
        {
          "internalType": "bytes32",
          "name": "r",
          "type": "bytes32"
        },
        {
          "internalType": "bytes32",
          "name": "s",
          "type": "bytes32"
        }
      ],
      "name": "removeLiquidityETHWithPermit",
      "outputs": [
        {
          "internalType": "uint256",
          "name": "amountToken",
          "type": "uint256"
        },
        {
          "internalType": "uint256",
          "name": "amountETH",
          "type": "uint256"
        }
      ],
      "stateMutability": "nonpayable",
      "type": "function"
    },
    {
      "inputs": [
        {
          "internalType": "address",
          "name": "token",
          "type": "address"
        },
        {
          "internalType": "uint256",
          "name": "liquidity",
          "type": "uint256"
        },
        {
          "internalType": "uint256",
          "name": "amountTokenMin",
          "type": "uint256"
        },
        {
          "internalType": "uint256",
          "name": "amountETHMin",
          "type": "uint256"
        },
        {
          "internalType": "address",
          "name": "to",
          "type": "address"
        },
        {
          "internalType": "uint256",
          "name": "deadline",
          "type": "uint256"
        },
        {
          "internalType": "bool",
          "name": "approveMax",
          "type": "bool"
        },
        {
          "internalType": "uint8",
          "name": "v",
          "type": "uint8"
        },
        {
          "internalType": "bytes32",
          "name": "r",
          "type": "bytes32"
        },
        {
          "internalType": "bytes32",
          "name": "s",
          "type": "bytes32"
        }
      ],
      "name": "removeLiquidityETHWithPermitSupportingFeeOnTransferTokens",
      "outputs": [
        {
          "internalType": "uint256",
          "name": "amountETH",
          "type": "uint256"
        }
      ],
      "stateMutability": "nonpayable",
      "type": "function"
    },
    {
      "inputs": [
        {
          "internalType": "address",
          "name": "tokenA",
          "type": "address"
        },
        {
          "internalType": "address",
          "name": "tokenB",
          "type": "address"
        },
        {
          "internalType": "uint256",
          "name": "liquidity",
          "type": "uint256"
        },
        {
          "internalType": "uint256",
          "name": "amountAMin",
          "type": "uint256"
        },
        {
          "internalType": "uint256",
          "name": "amountBMin",
          "type": "uint256"
        },
        {
          "internalType": "address",
          "name": "to",
          "type": "address"
        },
        {
          "internalType": "uint256",
          "name": "deadline",
          "type": "uint256"
        },
        {
          "internalType": "bool",
          "name": "approveMax",
          "type": "bool"
        },
        {
          "internalType": "uint8",
          "name": "v",
          "type": "uint8"
        },
        {
          "internalType": "bytes32",
          "name": "r",
          "type": "bytes32"
        },
        {
          "internalType": "bytes32",
          "name": "s",
          "type": "bytes32"
        }
      ],
      "name": "removeLiquidityWithPermit",
      "outputs": [
        {
          "internalType": "uint256",
          "name": "amountA",
          "type": "uint256"
        },
        {
          "internalType": "uint256",
          "name": "amountB",
          "type": "uint256"
        }
      ],
      "stateMutability": "nonpayable",
      "type": "function"
    },
    {
      "inputs": [],
      "name": "renounceOwnership",
      "outputs": [],
      "stateMutability": "nonpayable",
      "type": "function"
    },
    {
      "inputs": [
        {
          "internalType": "address",
          "name": "_swapMininng",
          "type": "address"
        }
      ],
      "name": "setSwapMining",
      "outputs": [],
      "stateMutability": "nonpayable",
      "type": "function"
    },
    {
      "inputs": [
        {
          "internalType": "uint256",
          "name": "amountOut",
          "type": "uint256"
        },
        {
          "internalType": "address[]",
          "name": "path",
          "type": "address[]"
        },
        {
          "internalType": "address",
          "name": "to",
          "type": "address"
        },
        {
          "internalType": "uint256",
          "name": "deadline",
          "type": "uint256"
        }
      ],
      "name": "swapETHForExactTokens",
      "outputs": [
        {
          "internalType": "uint256[]",
          "name": "amounts",
          "type": "uint256[]"
        }
      ],
      "stateMutability": "payable",
      "type": "function"
    },
    {
      "inputs": [
        {
          "internalType": "uint256",
          "name": "amountOutMin",
          "type": "uint256"
        },
        {
          "internalType": "address[]",
          "name": "path",
          "type": "address[]"
        },
        {
          "internalType": "address",
          "name": "to",
          "type": "address"
        },
        {
          "internalType": "uint256",
          "name": "deadline",
          "type": "uint256"
        }
      ],
      "name": "swapExactETHForTokens",
      "outputs": [
        {
          "internalType": "uint256[]",
          "name": "amounts",
          "type": "uint256[]"
        }
      ],
      "stateMutability": "payable",
      "type": "function"
    },
    {
      "inputs": [
        {
          "internalType": "uint256",
          "name": "amountOutMin",
          "type": "uint256"
        },
        {
          "internalType": "address[]",
          "name": "path",
          "type": "address[]"
        },
        {
          "internalType": "address",
          "name": "to",
          "type": "address"
        },
        {
          "internalType": "uint256",
          "name": "deadline",
          "type": "uint256"
        }
      ],
      "name": "swapExactETHForTokensSupportingFeeOnTransferTokens",
      "outputs": [],
      "stateMutability": "payable",
      "type": "function"
    },
    {
      "inputs": [
        {
          "internalType": "uint256",
          "name": "amountIn",
          "type": "uint256"
        },
        {
          "internalType": "uint256",
          "name": "amountOutMin",
          "type": "uint256"
        },
        {
          "internalType": "address[]",
          "name": "path",
          "type": "address[]"
        },
        {
          "internalType": "address",
          "name": "to",
          "type": "address"
        },
        {
          "internalType": "uint256",
          "name": "deadline",
          "type": "uint256"
        }
      ],
      "name": "swapExactTokensForETH",
      "outputs": [
        {
          "internalType": "uint256[]",
          "name": "amounts",
          "type": "uint256[]"
        }
      ],
      "stateMutability": "nonpayable",
      "type": "function"
    },
    {
      "inputs": [
        {
          "internalType": "uint256",
          "name": "amountIn",
          "type": "uint256"
        },
        {
          "internalType": "uint256",
          "name": "amountOutMin",
          "type": "uint256"
        },
        {
          "internalType": "address[]",
          "name": "path",
          "type": "address[]"
        },
        {
          "internalType": "address",
          "name": "to",
          "type": "address"
        },
        {
          "internalType": "uint256",
          "name": "deadline",
          "type": "uint256"
        }
      ],
      "name": "swapExactTokensForETHSupportingFeeOnTransferTokens",
      "outputs": [],
      "stateMutability": "nonpayable",
      "type": "function"
    },
    {
      "inputs": [
        {
          "internalType": "uint256",
          "name": "amountIn",
          "type": "uint256"
        },
        {
          "internalType": "uint256",
          "name": "amountOutMin",
          "type": "uint256"
        },
        {
          "internalType": "address[]",
          "name": "path",
          "type": "address[]"
        },
        {
          "internalType": "address",
          "name": "to",
          "type": "address"
        },
        {
          "internalType": "uint256",
          "name": "deadline",
          "type": "uint256"
        }
      ],
      "name": "swapExactTokensForTokens",
      "outputs": [
        {
          "internalType": "uint256[]",
          "name": "amounts",
          "type": "uint256[]"
        }
      ],
      "stateMutability": "nonpayable",
      "type": "function"
    },
    {
      "inputs": [
        {
          "internalType": "uint256",
          "name": "amountIn",
          "type": "uint256"
        },
        {
          "internalType": "uint256",
          "name": "amountOutMin",
          "type": "uint256"
        },
        {
          "internalType": "address[]",
          "name": "path",
          "type": "address[]"
        },
        {
          "internalType": "address",
          "name": "to",
          "type": "address"
        },
        {
          "internalType": "uint256",
          "name": "deadline",
          "type": "uint256"
        }
      ],
      "name": "swapExactTokensForTokensSupportingFeeOnTransferTokens",
      "outputs": [],
      "stateMutability": "nonpayable",
      "type": "function"
    },
    {
      "inputs": [],
      "name": "swapMining",
      "outputs": [
        {
          "internalType": "address",
          "name": "",
          "type": "address"
        }
      ],
      "stateMutability": "view",
      "type": "function"
    },
    {
      "inputs": [
        {
          "internalType": "uint256",
          "name": "amountOut",
          "type": "uint256"
        },
        {
          "internalType": "uint256",
          "name": "amountInMax",
          "type": "uint256"
        },
        {
          "internalType": "address[]",
          "name": "path",
          "type": "address[]"
        },
        {
          "internalType": "address",
          "name": "to",
          "type": "address"
        },
        {
          "internalType": "uint256",
          "name": "deadline",
          "type": "uint256"
        }
      ],
      "name": "swapTokensForExactETH",
      "outputs": [
        {
          "internalType": "uint256[]",
          "name": "amounts",
          "type": "uint256[]"
        }
      ],
      "stateMutability": "nonpayable",
      "type": "function"
    },
    {
      "inputs": [
        {
          "internalType": "uint256",
          "name": "amountOut",
          "type": "uint256"
        },
        {
          "internalType": "uint256",
          "name": "amountInMax",
          "type": "uint256"
        },
        {
          "internalType": "address[]",
          "name": "path",
          "type": "address[]"
        },
        {
          "internalType": "address",
          "name": "to",
          "type": "address"
        },
        {
          "internalType": "uint256",
          "name": "deadline",
          "type": "uint256"
        }
      ],
      "name": "swapTokensForExactTokens",
      "outputs": [
        {
          "internalType": "uint256[]",
          "name": "amounts",
          "type": "uint256[]"
        }
      ],
      "stateMutability": "nonpayable",
      "type": "function"
    },
    {
      "inputs": [
        {
          "internalType": "address",
          "name": "newOwner",
          "type": "address"
        }
      ],
      "name": "transferOwnership",
      "outputs": [],
      "stateMutability": "nonpayable",
      "type": "function"
    },
    {
      "stateMutability": "payable",
      "type": "receive"
    }
  ],
  "bytecode": "0x60c06040523480156200001157600080fd5b50604051620050b5380380620050b5833981810160405260408110156200003757600080fd5b5080516020909101516000620000556001600160e01b03620000be16565b600080546001600160a01b0319166001600160a01b0383169081178255604051929350917f8be0079c531659141344cd1fd0a4f28419497f9722a3daafe3b4186f6b6457e0908290a3506001600160601b0319606092831b8116608052911b1660a052620000c2565b3390565b60805160601c60a05160601c614ede620001d7600039806101e15280610e465280610e81528061100d528061130e52806118c05280611ba45280611efe5280612022528061211c52806121d252806122a052806124eb52806125735280612a795280612b285280612bf45280612c895280612cfd52806132ab5280613607528061363c528061367052806136e452806138845280613acb5280613b53525080610f1752806110c352806113ff52806116945280611976528061235c52806126935280612778528061293e52806129bb528061308b52806131f95280613245528061393f52806140a5528061440752806145db52806148f652806149a45280614a4b5280614ae75280614bdc5250614ede6000f3fe6080604052600436106101d15760003560e01c806385f8c259116100f7578063baa2abde11610095578063e8e3370011610064578063e8e3370014610c7c578063f2fde38b14610cfc578063f305d71914610d2f578063fb3bdb4114610d755761020a565b8063baa2abde14610ae2578063c45a015514610b3f578063d06ca61f14610b54578063ded9382a14610c095761020a565b806396ed28f9116100d157806396ed28f91461099a578063ad615dec146109d5578063af2979eb14610a0b578063b6f9de9514610a5e5761020a565b806385f8c259146108b95780638803dbee146108ef5780638da5cb5b146109855761020a565b80634e5eda111161016f5780635cb485921161013e5780635cb4859214610775578063715018a61461078a578063791ac9471461079f5780637ff36ab5146108355761020a565b80634e5eda11146106085780634f887183146106395780635b0d59841461066c5780635c11d795146106df5761020a565b80631f00ca74116101ab5780631f00ca74146103a95780632195995c1461045e57806338ed1739146104dc5780634a25d94a146105725761020a565b806302751cec1461020f578063054d50d41461027b57806318cbafe5146102c35761020a565b3661020a57336001600160a01b037f0000000000000000000000000000000000000000000000000000000000000000161461020857fe5b005b600080fd5b34801561021b57600080fd5b50610262600480360360c081101561023257600080fd5b506001600160a01b0381358116916020810135916040820135916060810135916080820135169060a00135610df9565b6040805192835260208301919091528051918290030190f35b34801561028757600080fd5b506102b16004803603606081101561029e57600080fd5b5080359060208101359060400135610f13565b60408051918252519081900360200190f35b3480156102cf57600080fd5b50610359600480360360a08110156102e657600080fd5b813591602081013591810190606081016040820135600160201b81111561030c57600080fd5b82018360208201111561031e57600080fd5b803590602001918460208302840111600160201b8311171561033f57600080fd5b91935091506001600160a01b038135169060200135610fbd565b60408051602080825283518183015283519192839290830191858101910280838360005b8381101561039557818101518382015260200161037d565b505050509050019250505060405180910390f35b3480156103b557600080fd5b50610359600480360360408110156103cc57600080fd5b81359190810190604081016020820135600160201b8111156103ed57600080fd5b8201836020820111156103ff57600080fd5b803590602001918460208302840111600160201b8311171561042057600080fd5b9190808060200260200160405190810160405280939291908181526020018383602002808284376000920191909152509295506113cd945050505050565b34801561046a57600080fd5b50610262600480360361016081101561048257600080fd5b506001600160a01b038135811691602081013582169160408201359160608101359160808201359160a08101359091169060c08101359060e081013515159060ff6101008201351690610120810135906101400135611548565b3480156104e857600080fd5b50610359600480360360a08110156104ff57600080fd5b813591602081013591810190606081016040820135600160201b81111561052557600080fd5b82018360208201111561053757600080fd5b803590602001918460208302840111600160201b8311171561055857600080fd5b91935091506001600160a01b038135169060200135611621565b34801561057e57600080fd5b50610359600480360360a081101561059557600080fd5b813591602081013591810190606081016040820135600160201b8111156105bb57600080fd5b8201836020820111156105cd57600080fd5b803590602001918460208302840111600160201b831117156105ee57600080fd5b91935091506001600160a01b038135169060200135611870565b34801561061457600080fd5b5061061d611b00565b604080516001600160a01b039092168252519081900360200190f35b34801561064557600080fd5b506102086004803603602081101561065c57600080fd5b50356001600160a01b0316611b0f565b34801561067857600080fd5b506102b1600480360361014081101561069057600080fd5b506001600160a01b0381358116916020810135916040820135916060810135916080820135169060a08101359060c081013515159060ff60e08201351690610100810135906101200135611b9b565b3480156106eb57600080fd5b50610208600480360360a081101561070257600080fd5b813591602081013591810190606081016040820135600160201b81111561072857600080fd5b82018360208201111561073a57600080fd5b803590602001918460208302840111600160201b8311171561075b57600080fd5b91935091506001600160a01b038135169060200135611c88565b34801561078157600080fd5b5061061d611efc565b34801561079657600080fd5b50610208611f20565b3480156107ab57600080fd5b50610208600480360360a08110156107c257600080fd5b813591602081013591810190606081016040820135600160201b8111156107e857600080fd5b8201836020820111156107fa57600080fd5b803590602001918460208302840111600160201b8311171561081b57600080fd5b91935091506001600160a01b038135169060200135611fd4565b6103596004803603608081101561084b57600080fd5b81359190810190604081016020820135600160201b81111561086c57600080fd5b82018360208201111561087e57600080fd5b803590602001918460208302840111600160201b8311171561089f57600080fd5b91935091506001600160a01b038135169060200135612258565b3480156108c557600080fd5b506102b1600480360360608110156108dc57600080fd5b508035906020810135906040013561268f565b3480156108fb57600080fd5b50610359600480360360a081101561091257600080fd5b813591602081013591810190606081016040820135600160201b81111561093857600080fd5b82018360208201111561094a57600080fd5b803590602001918460208302840111600160201b8311171561096b57600080fd5b91935091506001600160a01b038135169060200135612705565b34801561099157600080fd5b5061061d612902565b3480156109a657600080fd5b5061061d600480360360408110156109bd57600080fd5b506001600160a01b0381358116916020013516612911565b3480156109e157600080fd5b506102b1600480360360608110156109f857600080fd5b50803590602081013590604001356129b7565b348015610a1757600080fd5b506102b1600480360360c0811015610a2e57600080fd5b506001600160a01b0381358116916020810135916040820135916060810135916080820135169060a00135612a2d565b61020860048036036080811015610a7457600080fd5b81359190810190604081016020820135600160201b811115610a9557600080fd5b820183602082011115610aa757600080fd5b803590602001918460208302840111600160201b83111715610ac857600080fd5b91935091506001600160a01b038135169060200135612bae565b348015610aee57600080fd5b50610262600480360360e0811015610b0557600080fd5b506001600160a01b038135811691602081013582169160408201359160608101359160808201359160a08101359091169060c00135612f19565b348015610b4b57600080fd5b5061061d6131f7565b348015610b6057600080fd5b5061035960048036036040811015610b7757600080fd5b81359190810190604081016020820135600160201b811115610b9857600080fd5b820183602082011115610baa57600080fd5b803590602001918460208302840111600160201b83111715610bcb57600080fd5b91908080602002602001604051908101604052809392919081815260200183836020028082843760009201919091525092955061321b945050505050565b348015610c1557600080fd5b506102626004803603610140811015610c2d57600080fd5b506001600160a01b0381358116916020810135916040820135916060810135916080820135169060a08101359060c081013515159060ff60e082013516906101008101359061012001356132a0565b348015610c8857600080fd5b50610cde6004803603610100811015610ca057600080fd5b506001600160a01b038135811691602081013582169160408201359160608101359160808201359160a08101359160c0820135169060e00135613393565b60408051938452602084019290925282820152519081900360600190f35b348015610d0857600080fd5b5061020860048036036020811015610d1f57600080fd5b50356001600160a01b03166134ae565b610cde600480360360c0811015610d4557600080fd5b506001600160a01b0381358116916020810135916040820135916060810135916080820135169060a001356135b8565b61035960048036036080811015610d8b57600080fd5b81359190810190604081016020820135600160201b811115610dac57600080fd5b820183602082011115610dbe57600080fd5b803590602001918460208302840111600160201b83111715610ddf57600080fd5b91935091506001600160a01b03813516906020013561383c565b6000808242811015610e40576040805162461bcd60e51b81526020600482015260136024820152600080516020614e65833981519152604482015290519081900360640190fd5b610e6f897f00000000000000000000000000000000000000000000000000000000000000008a8a8a308a612f19565b9093509150610e7f898685613ca1565b7f00000000000000000000000000000000000000000000000000000000000000006001600160a01b0316632e1a7d4d836040518263ffffffff1660e01b815260040180828152602001915050600060405180830381600087803b158015610ee557600080fd5b505af1158015610ef9573d6000803e3d6000fd5b50505050610f078583613e0b565b50965096945050505050565b60007f00000000000000000000000000000000000000000000000000000000000000006001600160a01b031663054d50d48585856040518463ffffffff1660e01b815260040180848152602001838152602001828152602001935050505060206040518083038186803b158015610f8957600080fd5b505afa158015610f9d573d6000803e3d6000fd5b505050506040513d6020811015610fb357600080fd5b5051949350505050565b60608142811015611003576040805162461bcd60e51b81526020600482015260136024820152600080516020614e65833981519152604482015290519081900360640190fd5b6001600160a01b037f0000000000000000000000000000000000000000000000000000000000000000168686600019810181811061103d57fe5b905060200201356001600160a01b03166001600160a01b031614611096576040805162461bcd60e51b81526020600482015260186024820152600080516020614ddf833981519152604482015290519081900360640190fd5b6040805163d06ca61f60e01b8152600481018a815260248201928352604482018890526001600160a01b037f0000000000000000000000000000000000000000000000000000000000000000169263d06ca61f928c928b928b92606401846020850280828437600081840152601f19601f82011690508083019250505094505050505060006040518083038186803b15801561113157600080fd5b505afa158015611145573d6000803e3d6000fd5b505050506040513d6000823e601f3d908101601f19168201604052602081101561116e57600080fd5b8101908080516040519392919084600160201b82111561118d57600080fd5b9083019060208201858111156111a257600080fd5b82518660208202830111600160201b821117156111be57600080fd5b82525081516020918201928201910280838360005b838110156111eb5781810151838201526020016111d3565b505050509050016040525050509150868260018451038151811061120b57fe5b602002602001015110156112505760405162461bcd60e51b8152600401808060200182810382526026815260200180614d986026913960400191505060405180910390fd5b6112cd8686600081811061126057fe5b905060200201356001600160a01b0316336112b38989600081811061128157fe5b905060200201356001600160a01b03168a8a600181811061129e57fe5b905060200201356001600160a01b0316612911565b856000815181106112c057fe5b6020026020010151613f03565b61130c82878780806020026020016040519081016040528093929190818152602001838360200280828437600092019190915250309250614060915050565b7f00000000000000000000000000000000000000000000000000000000000000006001600160a01b0316632e1a7d4d8360018551038151811061134b57fe5b60200260200101516040518263ffffffff1660e01b815260040180828152602001915050600060405180830381600087803b15801561138957600080fd5b505af115801561139d573d6000803e3d6000fd5b505050506113c284836001855103815181106113b557fe5b6020026020010151613e0b565b509695505050505050565b604080516307c0329d60e21b815260048101848152602482019283528351604483015283516060936001600160a01b037f00000000000000000000000000000000000000000000000000000000000000001693631f00ca7493889388939192606401906020808601910280838360005b8381101561145557818101518382015260200161143d565b50505050905001935050505060006040518083038186803b15801561147957600080fd5b505afa15801561148d573d6000803e3d6000fd5b505050506040513d6000823e601f3d908101601f1916820160405260208110156114b657600080fd5b8101908080516040519392919084600160201b8211156114d557600080fd5b9083019060208201858111156114ea57600080fd5b82518660208202830111600160201b8211171561150657600080fd5b82525081516020918201928201910280838360005b8381101561153357818101518382015260200161151b565b50505050905001604052505050905092915050565b60008060006115578e8e612911565b9050600087611566578c61156a565b6000195b6040805163d505accf60e01b815233600482015230602482015260448101839052606481018c905260ff8a16608482015260a4810189905260c4810188905290519192506001600160a01b0384169163d505accf9160e48082019260009290919082900301818387803b1580156115e057600080fd5b505af11580156115f4573d6000803e3d6000fd5b505050506116078f8f8f8f8f8f8f612f19565b809450819550505050509b509b9950505050505050505050565b60608142811015611667576040805162461bcd60e51b81526020600482015260136024820152600080516020614e65833981519152604482015290519081900360640190fd5b6040805163d06ca61f60e01b8152600481018a815260248201928352604482018890526001600160a01b037f0000000000000000000000000000000000000000000000000000000000000000169263d06ca61f928c928b928b92606401846020850280828437600081840152601f19601f82011690508083019250505094505050505060006040518083038186803b15801561170257600080fd5b505afa158015611716573d6000803e3d6000fd5b505050506040513d6000823e601f3d908101601f19168201604052602081101561173f57600080fd5b8101908080516040519392919084600160201b82111561175e57600080fd5b90830190602082018581111561177357600080fd5b82518660208202830111600160201b8211171561178f57600080fd5b82525081516020918201928201910280838360005b838110156117bc5781810151838201526020016117a4565b50505050905001604052505050915086826001845103815181106117dc57fe5b602002602001015110156118215760405162461bcd60e51b8152600401808060200182810382526026815260200180614d986026913960400191505060405180910390fd5b6118318686600081811061126057fe5b6113c282878780806020026020016040519081016040528093929190818152602001838360200280828437600092019190915250899250614060915050565b606081428110156118b6576040805162461bcd60e51b81526020600482015260136024820152600080516020614e65833981519152604482015290519081900360640190fd5b6001600160a01b037f000000000000000000000000000000000000000000000000000000000000000016868660001981018181106118f057fe5b905060200201356001600160a01b03166001600160a01b031614611949576040805162461bcd60e51b81526020600482015260186024820152600080516020614ddf833981519152604482015290519081900360640190fd5b604080516307c0329d60e21b8152600481018a815260248201928352604482018890526001600160a01b037f00000000000000000000000000000000000000000000000000000000000000001692631f00ca74928c928b928b92606401846020850280828437600081840152601f19601f82011690508083019250505094505050505060006040518083038186803b1580156119e457600080fd5b505afa1580156119f8573d6000803e3d6000fd5b505050506040513d6000823e601f3d908101601f191682016040526020811015611a2157600080fd5b8101908080516040519392919084600160201b821115611a4057600080fd5b908301906020820185811115611a5557600080fd5b82518660208202830111600160201b82111715611a7157600080fd5b82525081516020918201928201910280838360005b83811015611a9e578181015183820152602001611a86565b5050505090500160405250505091508682600081518110611abb57fe5b602002602001015111156112505760405162461bcd60e51b8152600401808060200182810382526022815260200180614e206022913960400191505060405180910390fd5b6001546001600160a01b031681565b611b176143be565b6000546001600160a01b03908116911614611b79576040805162461bcd60e51b815260206004820181905260248201527f4f776e61626c653a2063616c6c6572206973206e6f7420746865206f776e6572604482015290519081900360640190fd5b600180546001600160a01b0319166001600160a01b0392909216919091179055565b600080611bc88c7f0000000000000000000000000000000000000000000000000000000000000000612911565b9050600086611bd7578b611bdb565b6000195b6040805163d505accf60e01b815233600482015230602482015260448101839052606481018b905260ff8916608482015260a4810188905260c4810187905290519192506001600160a01b0384169163d505accf9160e48082019260009290919082900301818387803b158015611c5157600080fd5b505af1158015611c65573d6000803e3d6000fd5b50505050611c778d8d8d8d8d8d612a2d565b9d9c50505050505050505050505050565b8042811015611ccc576040805162461bcd60e51b81526020600482015260136024820152600080516020614e65833981519152604482015290519081900360640190fd5b611d2085856000818110611cdc57fe5b905060200201356001600160a01b031633611d1a88886000818110611cfd57fe5b905060200201356001600160a01b03168989600181811061129e57fe5b8a613f03565b600085856000198101818110611d3257fe5b905060200201356001600160a01b03166001600160a01b03166370a08231856040518263ffffffff1660e01b815260040180826001600160a01b03166001600160a01b0316815260200191505060206040518083038186803b158015611d9757600080fd5b505afa158015611dab573d6000803e3d6000fd5b505050506040513d6020811015611dc157600080fd5b50516040805160208881028281018201909352888252929350611e039290918991899182918501908490808284376000920191909152508892506143c2915050565b86611eb58288886000198101818110611e1857fe5b905060200201356001600160a01b03166001600160a01b03166370a08231886040518263ffffffff1660e01b815260040180826001600160a01b03166001600160a01b0316815260200191505060206040518083038186803b158015611e7d57600080fd5b505afa158015611e91573d6000803e3d6000fd5b505050506040513d6020811015611ea757600080fd5b50519063ffffffff61487c16565b1015611ef25760405162461bcd60e51b8152600401808060200182810382526026815260200180614d986026913960400191505060405180910390fd5b5050505050505050565b7f000000000000000000000000000000000000000000000000000000000000000081565b611f286143be565b6000546001600160a01b03908116911614611f8a576040805162461bcd60e51b815260206004820181905260248201527f4f776e61626c653a2063616c6c6572206973206e6f7420746865206f776e6572604482015290519081900360640190fd5b600080546040516001600160a01b03909116907f8be0079c531659141344cd1fd0a4f28419497f9722a3daafe3b4186f6b6457e0908390a3600080546001600160a01b0319169055565b8042811015612018576040805162461bcd60e51b81526020600482015260136024820152600080516020614e65833981519152604482015290519081900360640190fd5b6001600160a01b037f0000000000000000000000000000000000000000000000000000000000000000168585600019810181811061205257fe5b905060200201356001600160a01b03166001600160a01b0316146120ab576040805162461bcd60e51b81526020600482015260186024820152600080516020614ddf833981519152604482015290519081900360640190fd5b6120bb85856000818110611cdc57fe5b6120f98585808060200260200160405190810160405280939291908181526020018383602002808284376000920191909152503092506143c2915050565b604080516370a0823160e01b815230600482015290516000916001600160a01b037f000000000000000000000000000000000000000000000000000000000000000016916370a0823191602480820192602092909190829003018186803b15801561216357600080fd5b505afa158015612177573d6000803e3d6000fd5b505050506040513d602081101561218d57600080fd5b50519050868110156121d05760405162461bcd60e51b8152600401808060200182810382526026815260200180614d986026913960400191505060405180910390fd5b7f00000000000000000000000000000000000000000000000000000000000000006001600160a01b0316632e1a7d4d826040518263ffffffff1660e01b815260040180828152602001915050600060405180830381600087803b15801561223657600080fd5b505af115801561224a573d6000803e3d6000fd5b50505050611ef28482613e0b565b6060814281101561229e576040805162461bcd60e51b81526020600482015260136024820152600080516020614e65833981519152604482015290519081900360640190fd5b7f00000000000000000000000000000000000000000000000000000000000000006001600160a01b0316868660008181106122d557fe5b905060200201356001600160a01b03166001600160a01b03161461232e576040805162461bcd60e51b81526020600482015260186024820152600080516020614ddf833981519152604482015290519081900360640190fd5b6040805163d06ca61f60e01b8152346004820181815260248301938452604483018990526001600160a01b037f0000000000000000000000000000000000000000000000000000000000000000169363d06ca61f938b928b929091606401846020850280828437600081840152601f19601f82011690508083019250505094505050505060006040518083038186803b1580156123ca57600080fd5b505afa1580156123de573d6000803e3d6000fd5b505050506040513d6000823e601f3d908101601f19168201604052602081101561240757600080fd5b8101908080516040519392919084600160201b82111561242657600080fd5b90830190602082018581111561243b57600080fd5b82518660208202830111600160201b8211171561245757600080fd5b82525081516020918201928201910280838360005b8381101561248457818101518382015260200161246c565b50505050905001604052505050915086826001845103815181106124a457fe5b602002602001015110156124e95760405162461bcd60e51b8152600401808060200182810382526026815260200180614d986026913960400191505060405180910390fd5b7f00000000000000000000000000000000000000000000000000000000000000006001600160a01b031663d0e30db08360008151811061252557fe5b60200260200101516040518263ffffffff1660e01b81526004016000604051808303818588803b15801561255857600080fd5b505af115801561256c573d6000803e3d6000fd5b50505050507f00000000000000000000000000000000000000000000000000000000000000006001600160a01b031663a9059cbb6125b088886000818110611cfd57fe5b846000815181106125bd57fe5b60200260200101516040518363ffffffff1660e01b815260040180836001600160a01b03166001600160a01b0316815260200182815260200192505050602060405180830381600087803b15801561261457600080fd5b505af1158015612628573d6000803e3d6000fd5b505050506040513d602081101561263e57600080fd5b505161264657fe5b61268582878780806020026020016040519081016040528093929190818152602001838360200280828437600092019190915250899250614060915050565b5095945050505050565b60007f00000000000000000000000000000000000000000000000000000000000000006001600160a01b03166385f8c2598585856040518463ffffffff1660e01b815260040180848152602001838152602001828152602001935050505060206040518083038186803b158015610f8957600080fd5b6060814281101561274b576040805162461bcd60e51b81526020600482015260136024820152600080516020614e65833981519152604482015290519081900360640190fd5b604080516307c0329d60e21b8152600481018a815260248201928352604482018890526001600160a01b037f00000000000000000000000000000000000000000000000000000000000000001692631f00ca74928c928b928b92606401846020850280828437600081840152601f19601f82011690508083019250505094505050505060006040518083038186803b1580156127e657600080fd5b505afa1580156127fa573d6000803e3d6000fd5b505050506040513d6000823e601f3d908101601f19168201604052602081101561282357600080fd5b8101908080516040519392919084600160201b82111561284257600080fd5b90830190602082018581111561285757600080fd5b82518660208202830111600160201b8211171561287357600080fd5b82525081516020918201928201910280838360005b838110156128a0578181015183820152602001612888565b50505050905001604052505050915086826000815181106128bd57fe5b602002602001015111156118215760405162461bcd60e51b8152600401808060200182810382526022815260200180614e206022913960400191505060405180910390fd5b6000546001600160a01b031690565b604080516396ed28f960e01b81526001600160a01b038481166004830152838116602483015291516000927f000000000000000000000000000000000000000000000000000000000000000016916396ed28f9916044808301926020929190829003018186803b15801561298457600080fd5b505afa158015612998573d6000803e3d6000fd5b505050506040513d60208110156129ae57600080fd5b50519392505050565b60007f00000000000000000000000000000000000000000000000000000000000000006001600160a01b031663ad615dec8585856040518463ffffffff1660e01b815260040180848152602001838152602001828152602001935050505060206040518083038186803b158015610f8957600080fd5b60008142811015612a73576040805162461bcd60e51b81526020600482015260136024820152600080516020614e65833981519152604482015290519081900360640190fd5b612aa2887f00000000000000000000000000000000000000000000000000000000000000008989893089612f19565b604080516370a0823160e01b81523060048201529051919450612b2692508a9187916001600160a01b038416916370a0823191602480820192602092909190829003018186803b158015612af557600080fd5b505afa158015612b09573d6000803e3d6000fd5b505050506040513d6020811015612b1f57600080fd5b5051613ca1565b7f00000000000000000000000000000000000000000000000000000000000000006001600160a01b0316632e1a7d4d836040518263ffffffff1660e01b815260040180828152602001915050600060405180830381600087803b158015612b8c57600080fd5b505af1158015612ba0573d6000803e3d6000fd5b505050506113c28483613e0b565b8042811015612bf2576040805162461bcd60e51b81526020600482015260136024820152600080516020614e65833981519152604482015290519081900360640190fd5b7f00000000000000000000000000000000000000000000000000000000000000006001600160a01b031685856000818110612c2957fe5b905060200201356001600160a01b03166001600160a01b031614612c82576040805162461bcd60e51b81526020600482015260186024820152600080516020614ddf833981519152604482015290519081900360640190fd5b60003490507f00000000000000000000000000000000000000000000000000000000000000006001600160a01b031663d0e30db0826040518263ffffffff1660e01b81526004016000604051808303818588803b158015612ce257600080fd5b505af1158015612cf6573d6000803e3d6000fd5b50505050507f00000000000000000000000000000000000000000000000000000000000000006001600160a01b031663a9059cbb612d3a88886000818110611cfd57fe5b836040518363ffffffff1660e01b815260040180836001600160a01b03166001600160a01b0316815260200182815260200192505050602060405180830381600087803b158015612d8a57600080fd5b505af1158015612d9e573d6000803e3d6000fd5b505050506040513d6020811015612db457600080fd5b5051612dbc57fe5b600086866000198101818110612dce57fe5b905060200201356001600160a01b03166001600160a01b03166370a08231866040518263ffffffff1660e01b815260040180826001600160a01b03166001600160a01b0316815260200191505060206040518083038186803b158015612e3357600080fd5b505afa158015612e47573d6000803e3d6000fd5b505050506040513d6020811015612e5d57600080fd5b50516040805160208981028281018201909352898252929350612e9f9290918a918a9182918501908490808284376000920191909152508992506143c2915050565b87611eb58289896000198101818110612eb457fe5b905060200201356001600160a01b03166001600160a01b03166370a08231896040518263ffffffff1660e01b815260040180826001600160a01b03166001600160a01b0316815260200191505060206040518083038186803b158015611e7d57600080fd5b6000808242811015612f60576040805162461bcd60e51b81526020600482015260136024820152600080516020614e65833981519152604482015290519081900360640190fd5b6000612f6c8b8b612911565b604080516323b872dd60e01b81523360048201526001600160a01b03831660248201819052604482018d9052915192935090916323b872dd916064808201926020929091908290030181600087803b158015612fc757600080fd5b505af1158015612fdb573d6000803e3d6000fd5b505050506040513d6020811015612ff157600080fd5b50506040805163226bf2d160e21b81526001600160a01b03888116600483015282516000938493928616926389afcb44926024808301939282900301818787803b15801561303e57600080fd5b505af1158015613052573d6000803e3d6000fd5b505050506040513d604081101561306857600080fd5b8101908080519060200190929190805190602001909291905050509150915060007f00000000000000000000000000000000000000000000000000000000000000006001600160a01b031663544caa568f8f6040518363ffffffff1660e01b815260040180836001600160a01b03166001600160a01b03168152602001826001600160a01b03166001600160a01b0316815260200192505050604080518083038186803b15801561311857600080fd5b505afa15801561312c573d6000803e3d6000fd5b505050506040513d604081101561314257600080fd5b505190506001600160a01b038e811690821614613160578183613163565b82825b90975095508a8710156131a75760405162461bcd60e51b8152600401808060200182810382526021815260200180614dff6021913960400191505060405180910390fd5b898610156131e65760405162461bcd60e51b8152600401808060200182810382526021815260200180614dbe6021913960400191505060405180910390fd5b505050505097509795505050505050565b7f000000000000000000000000000000000000000000000000000000000000000081565b6040805163d06ca61f60e01b815260048101848152602482019283528351604483015283516060937f00000000000000000000000000000000000000000000000000000000000000006001600160a01b03169363d06ca61f9388938893919260640190602080860191028083836000831561145557818101518382015260200161143d565b60008060006132cf8d7f0000000000000000000000000000000000000000000000000000000000000000612911565b90506000876132de578c6132e2565b6000195b6040805163d505accf60e01b815233600482015230602482015260448101839052606481018c905260ff8a16608482015260a4810189905260c4810188905290519192506001600160a01b0384169163d505accf9160e48082019260009290919082900301818387803b15801561335857600080fd5b505af115801561336c573d6000803e3d6000fd5b5050505061337e8e8e8e8e8e8e610df9565b909f909e509c50505050505050505050505050565b600080600083428110156133dc576040805162461bcd60e51b81526020600482015260136024820152600080516020614e65833981519152604482015290519081900360640190fd5b6133ea8c8c8c8c8c8c6148c5565b909450925060006133fb8d8d612911565b90506134098d338388613f03565b6134158c338387613f03565b806001600160a01b0316636a627842886040518263ffffffff1660e01b815260040180826001600160a01b03166001600160a01b03168152602001915050602060405180830381600087803b15801561346d57600080fd5b505af1158015613481573d6000803e3d6000fd5b505050506040513d602081101561349757600080fd5b5051949d939c50939a509198505050505050505050565b6134b66143be565b6000546001600160a01b03908116911614613518576040805162461bcd60e51b815260206004820181905260248201527f4f776e61626c653a2063616c6c6572206973206e6f7420746865206f776e6572604482015290519081900360640190fd5b6001600160a01b03811661355d5760405162461bcd60e51b8152600401808060200182810382526026815260200180614d726026913960400191505060405180910390fd5b600080546040516001600160a01b03808516939216917f8be0079c531659141344cd1fd0a4f28419497f9722a3daafe3b4186f6b6457e091a3600080546001600160a01b0319166001600160a01b0392909216919091179055565b60008060008342811015613601576040805162461bcd60e51b81526020600482015260136024820152600080516020614e65833981519152604482015290519081900360640190fd5b61362f8a7f00000000000000000000000000000000000000000000000000000000000000008b348c8c6148c5565b909450925060006136608b7f0000000000000000000000000000000000000000000000000000000000000000612911565b905061366e8b338388613f03565b7f00000000000000000000000000000000000000000000000000000000000000006001600160a01b031663d0e30db0856040518263ffffffff1660e01b81526004016000604051808303818588803b1580156136c957600080fd5b505af11580156136dd573d6000803e3d6000fd5b50505050507f00000000000000000000000000000000000000000000000000000000000000006001600160a01b031663a9059cbb82866040518363ffffffff1660e01b815260040180836001600160a01b03166001600160a01b0316815260200182815260200192505050602060405180830381600087803b15801561376257600080fd5b505af1158015613776573d6000803e3d6000fd5b505050506040513d602081101561378c57600080fd5b505161379457fe5b806001600160a01b0316636a627842886040518263ffffffff1660e01b815260040180826001600160a01b03166001600160a01b03168152602001915050602060405180830381600087803b1580156137ec57600080fd5b505af1158015613800573d6000803e3d6000fd5b505050506040513d602081101561381657600080fd5b505192503484101561382e5761382e33853403613e0b565b505096509650969350505050565b60608142811015613882576040805162461bcd60e51b81526020600482015260136024820152600080516020614e65833981519152604482015290519081900360640190fd5b7f00000000000000000000000000000000000000000000000000000000000000006001600160a01b0316868660008181106138b957fe5b905060200201356001600160a01b03166001600160a01b031614613912576040805162461bcd60e51b81526020600482015260186024820152600080516020614ddf833981519152604482015290519081900360640190fd5b604080516307c0329d60e21b81526004810189815260248201928352604482018890526001600160a01b037f00000000000000000000000000000000000000000000000000000000000000001692631f00ca74928b928b928b92606401846020850280828437600081840152601f19601f82011690508083019250505094505050505060006040518083038186803b1580156139ad57600080fd5b505afa1580156139c1573d6000803e3d6000fd5b505050506040513d6000823e601f3d908101601f1916820160405260208110156139ea57600080fd5b8101908080516040519392919084600160201b821115613a0957600080fd5b908301906020820185811115613a1e57600080fd5b82518660208202830111600160201b82111715613a3a57600080fd5b82525081516020918201928201910280838360005b83811015613a67578181015183820152602001613a4f565b5050505090500160405250505091503482600081518110613a8457fe5b60200260200101511115613ac95760405162461bcd60e51b8152600401808060200182810382526022815260200180614e206022913960400191505060405180910390fd5b7f00000000000000000000000000000000000000000000000000000000000000006001600160a01b031663d0e30db083600081518110613b0557fe5b60200260200101516040518263ffffffff1660e01b81526004016000604051808303818588803b158015613b3857600080fd5b505af1158015613b4c573d6000803e3d6000fd5b50505050507f00000000000000000000000000000000000000000000000000000000000000006001600160a01b031663a9059cbb613b9088886000818110611cfd57fe5b84600081518110613b9d57fe5b60200260200101516040518363ffffffff1660e01b815260040180836001600160a01b03166001600160a01b0316815260200182815260200192505050602060405180830381600087803b158015613bf457600080fd5b505af1158015613c08573d6000803e3d6000fd5b505050506040513d6020811015613c1e57600080fd5b5051613c2657fe5b613c6582878780806020026020016040519081016040528093929190818152602001838360200280828437600092019190915250899250614060915050565b81600081518110613c7257fe5b6020026020010151341115612685576126853383600081518110613c9257fe5b60200260200101513403613e0b565b604080516001600160a01b038481166024830152604480830185905283518084039091018152606490920183526020820180516001600160e01b031663a9059cbb60e01b178152925182516000946060949389169392918291908083835b60208310613d1e5780518252601f199092019160209182019101613cff565b6001836020036101000a0380198251168184511680821785525050505050509050019150506000604051808303816000865af19150503d8060008114613d80576040519150601f19603f3d011682016040523d82523d6000602084013e613d85565b606091505b5091509150818015613db3575080511580613db35750808060200190516020811015613db057600080fd5b50515b613e04576040805162461bcd60e51b815260206004820152601f60248201527f5472616e7366657248656c7065723a205452414e534645525f4641494c454400604482015290519081900360640190fd5b5050505050565b604080516000808252602082019092526001600160a01b0384169083906040518082805190602001908083835b60208310613e575780518252601f199092019160209182019101613e38565b6001836020036101000a03801982511681845116808217855250505050505090500191505060006040518083038185875af1925050503d8060008114613eb9576040519150601f19603f3d011682016040523d82523d6000602084013e613ebe565b606091505b5050905080613efe5760405162461bcd60e51b8152600401808060200182810382526023815260200180614e426023913960400191505060405180910390fd5b505050565b604080516001600160a01b0385811660248301528481166044830152606480830185905283518084039091018152608490920183526020820180516001600160e01b03166323b872dd60e01b17815292518251600094606094938a169392918291908083835b60208310613f885780518252601f199092019160209182019101613f69565b6001836020036101000a0380198251168184511680821785525050505050509050019150506000604051808303816000865af19150503d8060008114613fea576040519150601f19603f3d011682016040523d82523d6000602084013e613fef565b606091505b509150915081801561401d57508051158061401d575080806020019051602081101561401a57600080fd5b50515b6140585760405162461bcd60e51b8152600401808060200182810382526024815260200180614e856024913960400191505060405180910390fd5b505050505050565b60005b60018351038110156143b85760008084838151811061407e57fe5b602002602001015185846001018151811061409557fe5b60200260200101519150915060007f00000000000000000000000000000000000000000000000000000000000000006001600160a01b031663544caa5684846040518363ffffffff1660e01b815260040180836001600160a01b03166001600160a01b03168152602001826001600160a01b03166001600160a01b0316815260200192505050604080518083038186803b15801561413257600080fd5b505afa158015614146573d6000803e3d6000fd5b505050506040513d604081101561415c57600080fd5b5051875190915060009088906001870190811061417557fe5b60209081029190910101516001549091506001600160a01b031615614225576001546040805163152cf14360e31b81523360048201526001600160a01b0387811660248301528681166044830152606482018590529151919092169163a9678a189160848083019260209291908290030181600087803b1580156141f857600080fd5b505af115801561420c573d6000803e3d6000fd5b505050506040513d602081101561422257600080fd5b50505b600080836001600160a01b0316866001600160a01b0316146142495782600061424d565b6000835b91509150600060028a510388106142645788614284565b614284868b8a6002018151811061427757fe5b6020026020010151612911565b90506142908787612911565b6001600160a01b031663022c0d9f84848460006040519080825280601f01601f1916602001820160405280156142cd576020820181803683370190505b506040518563ffffffff1660e01b815260040180858152602001848152602001836001600160a01b03166001600160a01b0316815260200180602001828103825283818151815260200191508051906020019080838360005b8381101561433e578181015183820152602001614326565b50505050905090810190601f16801561436b5780820380516001836020036101000a031916815260200191505b5095505050505050600060405180830381600087803b15801561438d57600080fd5b505af11580156143a1573d6000803e3d6000fd5b505060019099019850614063975050505050505050565b50505050565b3390565b60005b6001835103811015613efe576000808483815181106143e057fe5b60200260200101518584600101815181106143f757fe5b60200260200101519150915060007f00000000000000000000000000000000000000000000000000000000000000006001600160a01b031663544caa5684846040518363ffffffff1660e01b815260040180836001600160a01b03166001600160a01b03168152602001826001600160a01b03166001600160a01b0316815260200192505050604080518083038186803b15801561449457600080fd5b505afa1580156144a8573d6000803e3d6000fd5b505050506040513d60408110156144be57600080fd5b5051905060006144ce8484612911565b9050600080600080846001600160a01b0316630902f1ac6040518163ffffffff1660e01b815260040160606040518083038186803b15801561450f57600080fd5b505afa158015614523573d6000803e3d6000fd5b505050506040513d606081101561453957600080fd5b5080516020909101516dffffffffffffffffffffffffffff91821693501690506000806001600160a01b038a811690891614614576578284614579565b83835b915091506145d7828b6001600160a01b03166370a082318a6040518263ffffffff1660e01b815260040180826001600160a01b03166001600160a01b0316815260200191505060206040518083038186803b158015611e7d57600080fd5b95507f00000000000000000000000000000000000000000000000000000000000000006001600160a01b031663054d50d48784846040518463ffffffff1660e01b815260040180848152602001838152602001828152602001935050505060206040518083038186803b15801561464d57600080fd5b505afa158015614661573d6000803e3d6000fd5b505050506040513d602081101561467757600080fd5b50516001549095506001600160a01b031615935061472492505050576001546040805163152cf14360e31b81523360048201526001600160a01b0389811660248301528881166044830152606482018590529151919092169163a9678a189160848083019260209291908290030181600087803b1580156146f757600080fd5b505af115801561470b573d6000803e3d6000fd5b505050506040513d602081101561472157600080fd5b50505b600080856001600160a01b0316886001600160a01b0316146147485782600061474c565b6000835b91509150600060028c51038a10614763578a614776565b614776888d8c6002018151811061427757fe5b604080516000808252602082019283905263022c0d9f60e01b835260248201878152604483018790526001600160a01b038086166064850152608060848501908152845160a48601819052969750908c169563022c0d9f958a958a958a9591949193919260c486019290918190849084905b838110156148005781810151838201526020016147e8565b50505050905090810190601f16801561482d5780820380516001836020036101000a031916815260200191505b5095505050505050600060405180830381600087803b15801561484f57600080fd5b505af1158015614863573d6000803e3d6000fd5b50506001909b019a506143c59950505050505050505050565b60006148be83836040518060400160405280601e81526020017f536166654d6174683a207375627472616374696f6e206f766572666c6f770000815250614cda565b9392505050565b6040805163e6a4390560e01b81526001600160a01b03888116600483015287811660248301529151600092839283927f00000000000000000000000000000000000000000000000000000000000000009092169163e6a4390591604480820192602092909190829003018186803b15801561493f57600080fd5b505afa158015614953573d6000803e3d6000fd5b505050506040513d602081101561496957600080fd5b50516001600160a01b03161415614a1c57604080516364e329cb60e11b81526001600160a01b038a81166004830152898116602483015291517f00000000000000000000000000000000000000000000000000000000000000009092169163c9c65396916044808201926020929091908290030181600087803b1580156149ef57600080fd5b505af1158015614a03573d6000803e3d6000fd5b505050506040513d6020811015614a1957600080fd5b50505b6040805163354aedbd60e21b81526001600160a01b038a811660048301528981166024830152825160009384937f00000000000000000000000000000000000000000000000000000000000000009093169263d52bb6f49260448083019392829003018186803b158015614a8f57600080fd5b505afa158015614aa3573d6000803e3d6000fd5b505050506040513d6040811015614ab957600080fd5b508051602090910151909250905081158015614ad3575080155b15614ae357879350869250614ccd565b60007f00000000000000000000000000000000000000000000000000000000000000006001600160a01b031663ad615dec8a85856040518463ffffffff1660e01b815260040180848152602001838152602001828152602001935050505060206040518083038186803b158015614b5957600080fd5b505afa158015614b6d573d6000803e3d6000fd5b505050506040513d6020811015614b8357600080fd5b50519050878111614bd85785811015614bcd5760405162461bcd60e51b8152600401808060200182810382526021815260200180614dbe6021913960400191505060405180910390fd5b889450925082614ccb565b60007f00000000000000000000000000000000000000000000000000000000000000006001600160a01b031663ad615dec8a85876040518463ffffffff1660e01b815260040180848152602001838152602001828152602001935050505060206040518083038186803b158015614c4e57600080fd5b505afa158015614c62573d6000803e3d6000fd5b505050506040513d6020811015614c7857600080fd5b5051905089811115614c8657fe5b87811015614cc55760405162461bcd60e51b8152600401808060200182810382526021815260200180614dff6021913960400191505060405180910390fd5b94508793505b505b5050965096945050505050565b60008184841115614d695760405162461bcd60e51b81526004018080602001828103825283818151815260200191508051906020019080838360005b83811015614d2e578181015183820152602001614d16565b50505050905090810190601f168015614d5b5780820380516001836020036101000a031916815260200191505b509250505060405180910390fd5b50505090039056fe4f776e61626c653a206e6577206f776e657220697320746865207a65726f20616464726573734d646578526f757465723a20494e53554646494349454e545f4f55545055545f414d4f554e544d646578526f757465723a20494e53554646494349454e545f425f414d4f554e544d646578526f757465723a20494e56414c49445f5041544800000000000000004d646578526f757465723a20494e53554646494349454e545f415f414d4f554e544d646578526f757465723a204558434553534956455f494e5055545f414d4f554e545472616e7366657248656c7065723a204554485f5452414e534645525f4641494c45444d646578526f757465723a2045585049524544000000000000000000000000005472616e7366657248656c7065723a205452414e534645525f46524f4d5f4641494c4544a2646970667358221220e46eb7db4d617268d7f67ac301411e78c6e26c5d8cc3b35455df0b2e749e802064736f6c63430006060033",
  "linkReferences": {},
  "deployedLinkReferences": {}
}